:100000000C942B020C945C020C945C020C945C0229
:100010000C945C020C945C020C945C020C945C02E8
:100020000C945C020C945C020C945C020C945C02D8
:100030000C945C020C945C020C945C020C945C02C8
:100040000C945C020C9463090C945C020C945C02AA
:100050000C945C020C945C020C945C020C941909E4
:100060000C945C020C94E3080C94B9080C945C02A8
:100070000C945C020C945C020C945C020C945C0288
:100080000C945C020C945C020C945C020C945C0278
:100090000C945C020C945C020C945C020C945C0268
:1000A0000C945C020C945C020C945C020C945C0258
:1000B0000C945C020C945C020C945C020C945C0248
:1000C0000C945C020C945C020C945C020C945C0238
:1000D0000C945C020C945C020C945C020C945C0228
:1000E0000C945C020C942E0A0C942D040C942C039A
:1000F0000C941B040C9447060C94C3020C94290422
:100100000C9407040C940D040C94D2020C94480631
:100110000C9411040C94E8030C94F6030C94F40270
:100120000C9428040C94FD030C94EE030C941F040F
:100130000C9479030C9415040C942C080C94F20381
:100140000C9496020C9423040C94E6020C94030481
:100150000C94FA03000000000000005F000000079C
:10016000000700147F147F14242A7F2A1223130807
:10017000646236495522500005030000001C2241EC
:10018000000041221C0014083E081408083E08081C
:1001900000503000000808080808006060000020D7
:1001A000100804023E5149453E00427F4000426132
:1001B0005149462141454B311814127F10274545BE
:1001C00045393C4A494930017109050336494949D5
:1001D00036064949291E0036360000005636000012
:1001E00008142241001414141414004122140802AB
:1001F00001510906324979413E7E1111117E7F4934
:100200004949363E414141227F4141221C7F4949B3
:1002100049417F090909013E4149497A7F08080897
:100220007F00417F41002040413F017F081422416F
:100230007F404040407F020C027F7F0408107F3ED9
:100240004141413E7F090909063E4151215E7F0936
:10025000192946464949493101017F01013F404082
:10026000403F1F2040201F3F4038403F6314081488
:100270006307087008076151494543007F41410009
:1002800002040810200041417F00040201020440E2
:1002900040404040000102040020545454787F48FC
:1002A0004444383844444420384444487F38545403
:1002B0005418087E0901020C5252523E7F08040471
:1002C0007800447D40002040443D007F10284400D9
:1002D00000417F40007C041804787C0804047838CE
:1002E000444444387C14141408081414187C7C0802
:1002F0000404084854545420043F4440203C4040E7
:10030000207C1C2040201C3C4030403C44281028CD
:10031000440C5050503C4464544C44000836410056
:1003200000007F0000004136080010080810080097
:100330000000000000002100240027002A002D00FA
:100340003000330001010000040107010A01000030
:100350002200250028002B002E003100340002016D
:100360000000050108010B0100000A0B02090C0D39
:100370000E08070304010000000000000000000058
:10038000000000000000000000000000000000006D
:10039000000000001211100000000000000000002A
:1003A000000000000000000000000000000000004D
:1003B00020002300260029002C002F00320000011D
:1003C00000000301060109010505050507050808E8
:1003D0000808020202020A0A0808040404040101CF
:1003E00001010101010103030303030303030407E4
:1003F00007070C0C0C0C0C0C0C0C0202020206067B
:100400000606060606060B0B0B0B0B0B0B0B01026D
:100410001020200808102040102040800201020116
:1004200008040201010204081020408080402010CE
:100430000804020180040201804020100804020127
:10044000080402010102040810204080010204088F
:10045000102040802E0A11241FBECFEFD1E2DEBF54
:10046000CDBF00E00CBF12E0A0E0B2E0E2E2F6E2B5
:1004700000E00BBF02C007900D92A43EB107D9F770
:1004800024E0A4EEB2E001C01D92A831B207E1F76A
:1004900012E0CBE2D2E000E006C021970109802FF4
:1004A000FE010E94EC12CA32D10780E00807A9F7CA
:1004B0000E948E0A0C940F130C940000CF92DF92CE
:1004C000EF92FF92CF93DF93B0910C04A0E08111E3
:1004D000AB2F80910D0490E0880F991FAC0142551D
:1004E0005C4FC0901204D0901304E0901404F0907C
:1004F000150430E020E0FA01C591D491E881B901FA
:1005000090E080E0EB23EA130AC02F5F3F4F6C15A9
:100510007D058E059F0578F36FEF7FEFCB01DF91AF
:10052000CF91FF90EF90DF90CF900895AF92BF9260
:10053000CF92DF92EF92FF920F931F93CF93DF93AF
:100540006C017B018B01040F151FEB015E01AE18DE
:10055000BF08C017D10759F06991D601ED91FC9100
:100560000190F081E02DC6011995892B79F7C5011D
:10057000DF91CF911F910F91FF90EF90DF90CF907F
:10058000BF90AF900895FC01538D448D252F30E02E
:10059000842F90E0821B930B541710F0CF96089590
:1005A00001970895FC01918D828D981761F0A28DBD
:1005B000AE0FBF2FB11D5D968C91928D9F5F9F7383
:1005C000928F90E008958FEF9FEF0895FC01918D39
:1005D000828D981731F0828DE80FF11D858D90E0A6
:1005E00008958FEF9FEF0895FC01918D228D892F43
:1005F00090E0805C9F4F821B91098F73992708952B
:1006000089E193E00E94F40221E0892B09F420E0C3
:10061000822F0895FC01A48DA80FB92FB11DA35AF4
:10062000BF4F2C91848D90E001968F739927848F12
:10063000A689B7892C93A089B1898C918370806435
:100640008C93938D848D981306C00288F389E02DD6
:1006500080818F7D80830895EF92FF920F931F9387
:10066000CF93DF93EC0181E0888F9B8D8C8D981365
:100670001AC0E889F989808185FF15C09FB7F89471
:10068000EE89FF896083E889F989808183708064BD
:1006900080839FBF81E090E0DF91CF911F910F9108
:1006A000FF90EF900895F62E0B8D10E00F5F1F4F17
:1006B0000F731127E02E8C8D8E110CC00FB607FC26
:1006C000FACFE889F989808185FFF5CFCE010E94B4
:1006D0000A03F1CFEB8DEC0FFD2FF11DE35AFF4F15
:1006E000F0829FB7F8940B8FEA89FB898081806242
:1006F000CFCFCF93DF93EC01888D8823B9F0AA89FF
:10070000BB89E889F9898C9185FD03C0808186FDCC
:100710000DC00FB607FCF7CF8C9185FFF2CF80811B
:1007200085FFEDCFCE010E940A03E9CFDF91CF9183
:10073000089580E090E0892B29F00E940003811148
:100740000E94000080E090E0892B49F080E090E07A
:10075000892B29F00E94000081110E94000080E096
:1007600090E0892B49F080E090E0892B29F00E94ED
:10077000000081110E94000080E090E0892B49F088
:1007800080E090E0892B29F00E94000081110C94F8
:10079000000008958150823108F05AC0E82FF0E03F
:1007A0008827EA52FC4F8F4F0C94EC12F603FA03A1
:1007B000E803EE03F2032804FD03030407040D0419
:1007C000110415041B041F042804230429042D0408
:1007D000809180008F7780938000089580918000C1
:1007E0008F7DF9CF80918000877FF5CF84B58F779B
:1007F00084BD089584B58F7DFBCF8091B0008F7745
:100800008093B00008958091B0008F7DF9CF8091E2
:1008100090008F77809390000895809190008F7D55
:10082000F9CF80919000877FF5CF8091A0008F77DE
:100830008093A00008958091A0008F7DF9CF8091D2
:10084000A000877FF5CF809120018F7780932001D2
:100850000895809120018F7DF9CF80912001877FBD
:10086000F5CFCF93DF93282F30E0F901E859FC4F03
:100870008491F901E25FFB4FD491F901E853FC4FF9
:10088000C491CC23A1F081110E94CA03EC2FF0E0A7
:10089000EE0FFF1FE255FC4FA591B491EC91ED23B3
:1008A00081E090E009F480E0DF91CF91089580E04D
:1008B00090E0FACF1F93CF93DF93282F30E0F90118
:1008C000E859FC4F8491F901E25FFB4FD491F901A3
:1008D000E853FC4FC491CC23A9F0162F81110E943C
:1008E000CA03EC2FF0E0EE0FFF1FE25BFC4FA59177
:1008F000B4918FB7F894EC91111108C0D095DE2314
:10090000DC938FBFDF91CF911F910895DE2BF8CF3D
:10091000CF93DF9390E0FC01E25FFB4F249188537B
:100920009C4FFC0184918823C9F090E0880F991FA7
:10093000FC01EC5CFC4FA591B491FC01E25BFC4F27
:10094000C591D49161110DC09FB7F8948C912095F9
:1009500082238C938881282328839FBFDF91CF91A6
:100960000895623051F49FB7F8943C91822F80959E
:1009700083238C93E8812E2BEFCF8FB7F894EC91E3
:100980002E2B2C938FBFEACF863308F0865320910D
:100990007B00982F9870277F922B90937B00877015
:1009A000806480937C0080917A00806480937A00D8
:1009B00080917A0086FDFCCF80917800909179003B
:1009C00008953FB7F8948091E9029091EA02A091CE
:1009D000EB02B091EC0226B5A89B05C02F3F19F0A1
:1009E0000196A11DB11D3FBFBA2FA92F982F8827AF
:1009F000BC01CD01620F711D811D911D42E0660F8A
:100A0000771F881F991F4A95D1F708958F929F925B
:100A1000AF92BF92CF92DF92EF92FF924B015C01B7
:100A20000E94E1046B017C010E94E1046C197D09C4
:100A30008E099F09683E734081059105A8F321E066
:100A4000821A9108A108B10888EEC80E83E0D81E6A
:100A5000E11CF11C81149104A104B10429F7FF9059
:100A6000EF90DF90CF90BF90AF909F908F900895C0
:100A7000CF92DF92EF92FF920F931F93CF93DF936A
:100A8000CDB7DEB7C054D1400FB6F894DEBF0FBE6D
:100A9000CDBF2FB7F8948091150390911603A091C4
:100AA0001703B09118032FBF40910E0450910F040B
:100AB00060911004709111048C019D01041B150BB1
:100AC000260B370BB901A801403D57406105710560
:100AD00090F480911604C05CDE4F0FB6F894DEBF30
:100AE0000FBECDBFDF91CF911F910F91FF90EF907F
:100AF000DF90CF90089580930E0490930F04A093FD
:100B00001004B0931104109209041092080410927A
:100B10000704109206041092050462E080910A0412
:100B20000E94880461E070E080E090E00E94060589
:100B300061E080910A040E94880460E080910A04C8
:100B40000E945A0480910B048551823020F58BE27B
:100B500091E10197F1F762E080910A040E94880414
:100B60008091170490E08230910538F0880F991F2A
:100B7000880F991F05970197F1F7F89480E00E947C
:100B80005E026F3F7F4F8F4F9F4F61F410921604AC
:100B9000789480E0A0CF64E170E080E090E00E9473
:100BA0000605D9CF81E00E945E026F3F7F4F8F4FD5
:100BB0009F4F61F38E010F5F1F4F6E018FEBC81ABD
:100BC0008EEFD80A780180E00E945E02F701608310
:100BD00071838283938381E00E945E02F7016483C4
:100BE000758386839783F8E0EF0EF11CEC14FD0407
:100BF00051F7789430E020E0F801C080D180E280A5
:100C0000F3804481558166817781FFEFCF16DF063F
:100C1000EF06FF0631F04F3F8FEF58076807780760
:100C200019F410921604B5CFF90183E0F595E79514
:100C30008A95E1F7EB5FFB4F8081880FC416D506DC
:100C4000E606F70610F180832F5F3F4F085F1F4FC6
:100C50002832310589F640910904209105048091DC
:100C60000604280F3327331F80910704280F311DF6
:100C700080910804820F932F911D99274817190618
:100C800081F681E08093160426CF8160DCCF089541
:100C900090E080E00895FB0101900020E9F7319792
:100CA000AF01461B570BDC01ED91FC910280F381F3
:100CB000E02D19948F929F92AF92BF92EF92FF9284
:100CC0000F931F93CF93DF93CDB7DEB7A1970FB6E6
:100CD000F894DEBF0FBECDBF7C01FA01CB0119A293
:100CE000223008F42AE08E010F5D1F4F822E912CD6
:100CF000B12CA12CBF01A50194010E94CA12F901D7
:100D0000CA016A300CF5605DD8016E938D01232B0A
:100D1000242B252B79F790E080E0109721F0BD017E
:100D2000C7010E944B06A1960FB6F894DEBF0FBE16
:100D3000CDBFDF91CF911F910F91FF90EF90BF90AA
:100D4000AF909F908F900895695CDECFCF93DF9333
:100D5000BC0189E193E00E944B06EC0163E272E082
:100D600089E193E00E944B068C0F9D1FDF91CF918C
:100D700008950C944B062F923F924F925F926F9280
:100D80007F928F929F92AF92BF92CF92DF92EF921B
:100D9000FF921F93CF93DF93EC016A017B01722EC8
:100DA000AB019601CB01B6010E949C1266E272E093
:100DB000811126C046015701E894B7F82FEF3FEFA5
:100DC0004FE75FE7C501B4010E949C1281110CC07E
:100DD0002FEF3FEF4FE75FE7C501B4010E948C1092
:100DE0006AE272E0181664F02FEF3FEF4FE75FE41E
:100DF000C701B6010E94E4111816B4F46EE272E065
:100E0000CE01DF91CF911F91FF90EF90DF90CF90B7
:100E1000BF90AF909F908F907F906F905F904F901A
:100E20003F902F900C944B062FEF3FEF4FE75FEC76
:100E3000C701B6010E948C1087FDE0CF20E030E0B2
:100E4000A901C701B6010E948C10312C212C87FF0B
:100E50000DC0E881F9810190F081E02D6DE2CE01B5
:100E600019951C01F7FAF094F7F8F09410E060E09F
:100E700070E080E09FE3711641F020E030E040E256
:100E800051E40E9491101F5FF6CFA70196010E94C6
:100E900020102B013C010E9403114B015C012AE050
:100EA000BC01A401CE010E945A067C01E20CF31C95
:100EB0001123E1F1C501B4010E9432119B01AC0183
:100EC000C301B2010E941F104B015C01E881F9814E
:100ED0000190F081E02D6EE2CE011995E80EF91E29
:100EE000115020F120E030E040E251E4C501B401AE
:100EF0000E94E9112B013C010E9403114B01B12C0E
:100F0000A12C2AE0B501A401CE010E945A06E80EE8
:100F1000F91EC501B4010E9432119B01AC01C3014D
:100F2000B2010E941F104B015C01DACFC701DF91B3
:100F3000CF911F91FF90EF90DF90CF90BF90AF9037
:100F40009F908F907F906F905F904F903F902F90E9
:100F50000895CF93DF93AB01BC0122E089E193E0D8
:100F60000E94BB06EC0163E272E089E193E00E941B
:100F70004B068C0F9D1FDF91CF910895EF92FF924A
:100F80000F931F93CF93DF93EC01042F8E810E9468
:100F90005A0460E088850E945A04FC80ED8018E0C5
:100FA000602F661F6627661F8E2D0E945A04000F51
:100FB00061E08F2D0E945A0460E08F2D0E945A0438
:100FC000115071F761E08885DF91CF911F910F91EA
:100FD000FF90EF900C945A04CF93DF93C6EBD3E0CD
:100FE0001C8690E06B8529E3629F612D1124669534
:100FF00070E06F5F7F4F0E94B6128D8740E860E01F
:10100000CE010E94BE074D85406460E0CE01DF91B5
:10101000CF910C94BE07CF93DF9380E00E94EC0742
:10102000D0E0C0E08091C103869586958695909129
:10103000C003899FC0011124C817D90740F440E0BC
:1010400061E086EB93E00E94BE072196EBCF80E043
:10105000DF91CF910C94EC07CF92DF92EF92FF9249
:101060000F931F93CF93DF9300D01F921F92CDB7A2
:10107000DEB767FD6BC07C01862F90E0603208F41C
:1010800055C0809725E0289FB001299F700D11243D
:101090006C5A7E4F45E050E0CE0101960E94001050
:1010A0008E010F5F1F4F680185E0C80ED11CF8014B
:1010B00041918F01F70186858111409561E0C7015B
:1010C0000E94BE070C151D0591F7F7014685419555
:1010D00061E0C7010E94BE07F701848590E0069693
:1010E000628570E00E94B6128487892B79F4858529
:1010F00090E00196638529E3629F612D1124669536
:1011000070E06F5F7F4F0E94B612858781E090E0AC
:101110000F900F900F900F900F90DF91CF911F9134
:101120000F91FF90EF90DF90CF900895880F991F57
:10113000F701E80FF91F078510890115110509F05E
:10114000B2CF45E050E064E571E0A6CF90E080E0EA
:10115000DFCFCF93DF93D0E0C0E060E0CE010E940C
:1011600011102196C11580E1D807B9F7DF91CF9111
:1011700008951F920F920FB60F9211240BB60F9283
:101180002F933F934F935F936F937F938F939F938F
:10119000AF93BF93EF93FF9389E193E00E940A031B
:1011A000FF91EF91BF91AF919F918F917F916F913F
:1011B0005F914F913F912F910F900BBE0F900FBEFB
:1011C0000F901F9018951F920F920FB60F92112437
:1011D0000BB60F922F938F939F93EF93FF93E09112
:1011E0002903F0912A038081E0912F03F0913003CD
:1011F00082FD1DC09081809132038F5F8F7320919B
:101200003303821741F0E0913203F0E0E75EFC4FD8
:10121000958F80933203FF91EF919F918F912F9142
:101220000F900BBE0F900FBE0F901F9018958081EE
:10123000F2CF1F920F920FB60F9211242F933F936C
:101240008F939F93AF93BF93809115039091160353
:10125000A0911703B09118033091E80223E0230F07
:101260002D3758F50196A11DB11D2093E8028093FA
:10127000150390931603A0931703B093180380915E
:10128000E9029091EA02A091EB02B091EC02019682
:10129000A11DB11D8093E9029093EA02A093EB0295
:1012A000B093EC02BF91AF919F918F913F912F919D
:1012B0000F900FBE0F901F90189526E8230F0296EF
:1012C000A11DB11DD2CF1F920F920FB60F92112404
:1012D0000BB60F929F92AF92BF92CF92DF92EF9296
:1012E000FF920F931F932F933F934F935F936F93AF
:1012F0007F938F939F93AF93BF93EF93FF93CF937E
:10130000DF93CDB7DEB76A97DEBFCDBF8091E6022F
:101310009091E7028734910509F075C0E090E402EE
:10132000F090E502E11480E1F80608F065C0FE01E6
:1013300071968AE0DF011D928A95E9F78091110389
:1013400090911203A0911303B091140389839A839F
:10135000AB83BC8380910D0390910E03A0910F038A
:10136000B09110038D839E83AF83B8878091030370
:1013700090910403A0910503B091060389879A8791
:10138000AB87BC878091FF0290910003A09101037D
:10139000B09102038D879E87AF87B88B8091FF0243
:1013A000898B70976F0110E000E0D6019D906D0170
:1013B0005701A00EB11EC5010E940910981621F018
:1013C000692DC5010E9411100F5F1F4F0A311105D1
:1013D00061F78091E4029091E5024A969093E502CC
:1013E0008093E4028091E6029091E7020196909347
:1013F000E7028093E6020EC00E94A9081092E5025F
:101400001092E402EFCF8E38910581F71092E70237
:101410001092E6026A960FB6F894DEBF0FBECDBFFB
:10142000DF91CF91FF91EF91BF91AF919F918F91FC
:101430007F916F915F914F913F912F911F910F91EC
:10144000FF90EF90DF90CF90BF90AF909F900F9064
:101450000BBE0F900FBE0F901F901895E9E1F3E0BF
:101460001382128288EE93E0A0E0B0E0848395833B
:10147000A683B78389E092E09183808385EC90E036
:101480009587848784EC90E09787868780EC90E04E
:10149000918B808B81EC90E0938B828B82EC90E03F
:1014A000958B848B86EC90E0978B868B118E128EB9
:1014B000138E148EA5E0B4E087E315968C931597F0
:1014C00086E116968C931697E5E4F4E0E49117967E
:1014D000EC931797EFEFF3E0E4911896EC931897DD
:1014E00040E85EE360E070E01D964D935D936D9380
:1014F0007C935097E6EBF3E0138212828BE192E04B
:101500009183808383E0848384E0858385E0868380
:1015100086E0878387E0808716860895CF93DF93E0
:1015200000D000D000D01F92CDB7DEB7789484B53C
:10153000826084BD84B5816084BD85B5826085BDCF
:1015400085B5816085BD80916E00816080936E005D
:10155000109281008091810082608093810080914F
:101560008100816080938100809180008160809300
:1015700080008091B10084608093B1008091B000C0
:1015800081608093B000809191008260809391008F
:1015900080919100816080939100809190008160A2
:1015A000809390008091A10082608093A10080913F
:1015B000A10081608093A1008091A0008160809350
:1015C000A0008091210182608093210180912101FE
:1015D00081608093210180912001816080932001AE
:1015E00080917A00846080937A0080917A00826092
:1015F00080937A0080917A00816080937A00809154
:101600007A00806880937A001092C1000E94A90835
:101610001092800010928100109285001092840038
:101620008FEF9FEF909389008093880080918100D5
:101630008D608093810080916F00826080936F0045
:10164000E0912903F0912A0382E08083E091250351
:10165000F09126031082E0912703F09128038FEC8C
:10166000808310923103E0912D03F0912E0386E0E8
:101670008083E0912B03F0912C0380818061808333
:10168000E0912B03F0912C03808188608083E091AE
:101690002B03F0912C03808180688083E0912B03E1
:1016A000F0912C0380818F7D808360E086E30E942F
:1016B000880462E080910A040E9488042FB7F8949D
:1016C0008091150390911603A0911703B091180310
:1016D0002FBF805D9740A109B10980930E049093BC
:1016E0000F04A0931004B093110487E380931704B0
:1016F00060E088E30E94880460E089E00E9488043A
:1017000060E088E00E94880484E58093C00380E361
:101710008093C1031092BF031092C2031092C303BF
:10172000E5ECF3E080E4DF011D928A95E9F761E0E2
:101730008091BA030E94880461E08091BB030E94FB
:10174000880461E08091BC030E94880461E080917C
:10175000BD030E94880461E08091BE030E9488045A
:1017600061E08091BD030E945A0461E08091BE0354
:101770000E945A0460E08091BD030E945A0464E60E
:1017800070E080E090E00E94060561E08091BD037A
:101790000E945A0441E260E086EB93E00E94BE079B
:1017A00043E160E086EB93E00E94BE078091BF03B7
:1017B00042EC813039F440EE60E086EB93E00E9429
:1017C000BE0745E060E086EB93E00E94BE0740E282
:1017D00060E086EB93E00E94BE0749E060E086EBA4
:1017E00093E00E94BE070E940B0848E060E086EB91
:1017F00093E00E94BE074CE060E086EB93E00E941D
:10180000BE0764E670E080E090E00E94060540E8D4
:1018100060E086EB93E00E94BE0740E460E086EB68
:1018200093E00E94BE0780E092E09093C80380930B
:10183000C7030E940B08812C912C98E4A92E92E4F6
:10184000B92E86E30E94C404BC01990F880B990B42
:101850000E9434112AE038E240EA5BE30E94E91179
:101860006B017C0120E030E04AE753E40E94E9117B
:101870002B013C01A701960160E070E080EA90E452
:101880000E941F109B01AC01C301B2010E94911084
:101890006B017C0120E030E048EC52E40E94E4114E
:1018A00087FD57C0A701960160E070E088EC92E4E4
:1018B0000E941F1026E938E342E759EB0E94E91124
:1018C0009B01AC016DEF79E68CE19EE30E941F1055
:1018D0000E945C122EED3AE148EC5EE30E941F107C
:1018E00026E938E342EF58EB0E9491106093ED0235
:1018F0007093EE028093EF029093F0026091ED02FC
:101900007091EE028091EF029091F00260931103CA
:101910007093120380931303909314030E94A907FA
:1019200060ED77E080E090E00E9406050E943805B7
:10193000882351F080910B048B3030F08D30B0F063
:101940008551823008F447C060E070E080EC9FE78A
:1019500029C020E030E048EC52E4C701B6010E9403
:101960001F102DEC3CEC4CEC5EE3BECF6091060406
:1019700070E090E080E00E9434112DEC3CEC4CECE7
:101980005DE30E94E9116B017C016091050470E048
:1019900090E080E00E9434119B01AC01C701B601C8
:1019A0000E94201060930D0370930E0380930F0329
:1019B000909310030E943805882341F080910B0416
:1019C0008C3009F4F2C1C8F48B3081F160E070E032
:1019D00080EC9FE753C06091050470910604762760
:1019E0006727762790E080E00E9432112DEC3CECD6
:1019F0004CEC5DE30E94E911D5CF8551823030F780
:101A000010910704612F70E0762F662766277F7795
:101A100080910804682B90E080E00E9432112DEC48
:101A20003CEC4CEC5DE30E94E911DBC160910704E2
:101A300070E090E080E00E9432116B017C01109117
:101A4000080417FF0AC0AC019B0160E070E080E869
:101A50009FEB0E941F106B017C011F70612F70E0D3
:101A600090E080E00E9434112DEC3CEC4CEC5DE306
:101A70000E94E911A70196010E94201060930903BA
:101A800070930A0380930B0390930C0362E372E05C
:101A900089E193E00E94B90640910D0350910E0335
:101AA00060910F037091100322E089E193E00E949E
:101AB000BB066DE372E089E193E00E94B9064091B4
:101AC000090350910A0360910B0370910C0322E00B
:101AD00089E193E00E94BB066EE472E089E193E045
:101AE0000E94B90660EB89E193E00E942C0360E557
:101AF00072E089E193E00E94B90663E272E089E155
:101B000093E00E944B0688E30E94C404BC01990F35
:101B1000880B990B0E9434112AE038E240EA5BE31B
:101B20000E94E9116B017C0120E030E04AE754E4B7
:101B30000E94E9112B013C01A701960160E070E0D1
:101B400080EA90E40E941F109B01AC01C301B20126
:101B50000E9491106B017C01C092F102D092F202BE
:101B6000E092F302F092F40220E030E046E953E420
:101B70000E948C1018160CF438C180E090E0AAE79F
:101B8000B4E48093030390930403A0930503B093FC
:101B9000060363E572E089E193E00E94B906609173
:101BA000F1027091F2028091F3029091F4020E948E
:101BB000A90789E692E00E94A60668EE73E080E03D
:101BC00090E00E94060589E30E94C404BC01990FBD
:101BD000880B990B0E9434112AE038E240EA5BE35B
:101BE0000E94E91120E030E040EC50E40E94E9114D
:101BF0006093FF02709300038093010390930203AC
:101C000060E972E089E193E00E94B9064091FF0229
:101C100050910003609101037091020322E089E179
:101C200093E00E94BB0668ED72E089E193E00E94B8
:101C3000B9066CEC72E089E193E00E94B90663E2B8
:101C400072E089E193E00E944B0689E00E94310432
:101C5000892B09F0BBC18AE0E0EDF2E0DE011196CC
:101C600001900D928A95E1F7BE016F5F7F4F85EF7E
:101C700092E00E9408138DED92E00E94A60688E093
:101C80000E9431048C0190930803809307030E9403
:101C90000B080130110509F0ACC140E260E086EBB1
:101CA00093E00E94BE0780E00E94EC0761EB72E0C7
:101CB00086EB93E00E94B906409111035091120304
:101CC000609113037091140321E086EB93E00E946E
:101CD000BB0667EB72E086EB93E00E94B90681E0F9
:101CE0000E94EC076AEB72E086EB93E00E94B90673
:101CF00040910D0350910E0360910F0370911003FA
:101D000022E086EB93E00E94BB066FEB72E086EB6D
:101D100093E00E94B90682E00E94EC0761EC72E059
:101D200086EB93E00E94B9064091030350910403AF
:101D3000609105037091060322E086EB93E00E9418
:101D4000BB066DE672E086EB93E00E94B90683E085
:101D50000E94EC0766EC72E086EB93E00E94B90605
:101D60004091FF02509100036091010370910203C2
:101D700022E086EB93E00E94BB066BEC72E086EB00
:101D800093E00E94B90684E00E94EC0765EF72E0E0
:101D900086EB93E00E94B90668EB7BE080E090E080
:101DA0000E9406050E9499034CCD10910704612FF3
:101DB00070E090E080E00E9432116B017C01609144
:101DC00008046F7070E090E080E00E9434112DEC08
:101DD0003CEC4CEC5DE30E94E911A70196010E94E6
:101DE000201017FF4BCE905849CE20E030E046E956
:101DF00053E4C701B6010E94E41118162CF520E047
:101E000030E84BEB54E4C701B6010E948C1087FF09
:101E10001BC08092030390920403A0920503B0922A
:101E2000060363E572E089E193E00E94B9066091E0
:101E3000F1027091F2028091F3029091F4020E94FB
:101E4000A90782E792E0B7CE20E030E84BEB54E4FC
:101E5000C701B6010E94E41187FD29C020E030E4EB
:101E60004CE156E4C701B6010E948C1087FF1FC0E9
:101E700080E090E0A8ECB2E4809303039093040325
:101E8000A0930503B093060363E572E089E193E054
:101E90000E94B9066091F1027091F2028091F30202
:101EA0009091F4020E94A90789E792E084CE20E095
:101EB00030E44CE156E4C701B6010E94E41187FD0D
:101EC00029C020E038EB48E857E4C701B6010E947A
:101ED0008C1087FF1FC080E090E0A0E2B1E4809307
:101EE000030390930403A0930503B093060363E5F3
:101EF00072E089E193E00E94B9066091F10270916D
:101F0000F2028091F3029091F4020E94A90781E805
:101F100092E051CE20E038EB48E857E4C701B60123
:101F20000E94E41187FD29C020E03CE742E159E42A
:101F3000C701B6010E948C1087FF1FC080E090E0AF
:101F4000A0E8BFE38093030390930403A0930503E9
:101F5000B093060363E572E089E193E00E94B9065D
:101F60006091F1027091F2028091F3029091F4027B
:101F70000E94A9078AE892E01ECE20E03CE742E1F9
:101F800059E4C701B6010E94E41187FD16CE8DEC1D
:101F90009CECACECBDE38093030390930403A0930B
:101FA0000503B093060363E572E089E193E00E94C4
:101FB000B9066091F1027091F2028091F302909162
:101FC000F4020E94A90788E892E0F5CD8AE0EAEDE4
:101FD000F2E0DE01119601900D928A95E1F7BE01C3
:101FE0006F5F7F4F85EF92E00E94081387EA92E0CF
:101FF00044CE44E260E086EB93E00E94BE07CCCE84
:10200000FB01DC0102C005900D9241505040D8F711
:102010000895F999FECF92BD81BDF89A992780B5B0
:102020000895262FF999FECF1FBA92BD81BD20BD1C
:102030000FB6F894FA9AF99A0FBE0196089550587F
:10204000BB27AA270E9437100C94AA110E949C114A
:1020500038F00E94A31120F039F49F3F19F426F4C0
:102060000C9499110EF4E095E7FB0C949311E92F71
:102070000E94BB1158F3BA176207730784079507CC
:1020800020F079F4A6F50C94DD110EF4E0950B2EFA
:10209000BA2FA02D0B01B90190010C01CA01A001BA
:1020A0001124FF27591B99F0593F50F4503E68F115
:1020B0001A16F040A22F232F342F4427585FF3CF56
:1020C000469537952795A795F0405395C9F77EF427
:1020D0001F16BA0B620B730B840BBAF09150A1F070
:1020E000FF0FBB1F661F771F881FC2F70EC0BA0FF6
:1020F000621F731F841F48F4879577956795B7957E
:10210000F7959E3F08F0B0CF9395880F08F0992778
:10211000EE0F9795879508950E946F1108F481E05E
:1021200008950E94A5100C94AA110E94A31158F0C2
:102130000E949C1140F029F45F3F29F00C94931108
:1021400051110C94DE110C9499110E94BB1168F38B
:102150009923B1F3552391F3951B550BBB27AA2760
:1021600062177307840738F09F5F5F4F220F331F9A
:10217000441FAA1FA9F335D00E2E3AF0E0E832D062
:1021800091505040E695001CCAF72BD0FE2F29D065
:10219000660F771F881FBB1F261737074807AB0737
:1021A000B0E809F0BB0B802DBF01FF2793585F4FAC
:1021B0003AF09E3F510578F00C9493110C94DE1187
:1021C0005F3FE4F3983ED4F3869577956795B7958E
:1021D000F7959F5FC9F7880F911D9695879597F999
:1021E0000895E1E0660F771F881FBB1F6217730712
:1021F0008407BA0720F0621B730B840BBA0BEE1F27
:1022000088F7E09508950E94C31188F09F5798F0D1
:10221000B92F9927B751B0F0E1F0660F771F881FEB
:10222000991F1AF0BA95C9F714C0B13091F00E9405
:10223000DD11B1E008950C94DD11672F782F882708
:10224000B85F39F0B93FCCF3869577956795B3952C
:10225000D9F73EF490958095709561957F4F8F4F9B
:102260009F4F0895E89409C097FB3EF490958095A0
:10227000709561957F4F8F4F9F4F9923A9F0F92F4C
:1022800096E9BB279395F695879577956795B795CA
:10229000F111F8CFFAF4BB0F11F460FF1BC06F5FB0
:1022A0007F4F8F4F9F4F16C0882311F096E911C0C2
:1022B000772321F09EE8872F762F05C0662371F0E3
:1022C00096E8862F70E060E02AF09A95660F771FF7
:1022D000881FDAF7880F9695879597F90895990FD3
:1022E0000008550FAA0BE0E8FEEF16161706E807E0
:1022F000F907C0F012161306E407F50798F0621B01
:10230000730B840B950B39F40A2661F0232B242BD5
:10231000252B21F408950A2609F4A140A6958FEFF4
:10232000811D811D089597F99F6780E870E060E046
:1023300008959FEF80EC089500240A94161617065E
:1023400018060906089500240A94121613061406A6
:1023500005060895092E0394000C11F4882352F009
:10236000BB0F40F4BF2B11F460FF04C06F5F7F4FC1
:102370008F4F9F4F089557FD9058440F551F59F0A8
:102380005F3F71F04795880F97FB991F61F09F3F62
:1023900079F087950895121613061406551FF2CF8B
:1023A0004695F1DF08C0161617061806991FF1CFDB
:1023B00086957105610508940895E894BB27662702
:1023C0007727CB0197F908950E946F1108F48FEFDA
:1023D00008950E94FC110C94AA110E949C1138F0DF
:1023E0000E94A31120F0952311F00C9493110C94EA
:1023F000991111240C94DE110E94BB1170F3959F6A
:10240000C1F3950F50E0551F629FF001729FBB27EB
:10241000F00DB11D639FAA27F00DB11DAA1F649F87
:102420006627B00DA11D661F829F2227B00DA11D3A
:10243000621F739FB00DA11D621F839FA00D611DC0
:10244000221F749F3327A00D611D231F849F600DE1
:10245000211D822F762F6A2F11249F5750409AF00A
:10246000F1F088234AF0EE0FFF1FBB1F661F771F96
:10247000881F91505040A9F79E3F510580F00C9461
:1024800093110C94DE115F3FE4F3983ED4F38695EC
:1024900077956795B795F795E7959F5FC1F7FE2B01
:1024A000880F911D9695879597F9089519F416F45C
:1024B0000C9499110C94A1120E94C311B8F39923A2
:1024C000C9F3B6F39F57550B87FF0E94AF12002444
:1024D000A0E640EA900180585695979528F4805CD4
:1024E000660F771F881F20F026173707480730F43C
:1024F000621B730B840B202931294A2BA695179454
:102500000794202531254A2758F7660F771F881F23
:1025100020F026173707480730F4620B730B840B43
:10252000200D311D411DA09581F7B901842F9158CF
:10253000880F9695879508950E946F11880B990BC7
:1025400008959F3F31F0915020F4879577956795D6
:10255000B795880F911D9695879597F90895915095
:102560005040660F771F881FD2F7089597FB072EFC
:1025700016F4009407D077FD09D00E94F41207FCEE
:1025800005D03EF4909581959F4F08957095619583
:102590007F4F0895A1E21A2EAA1BBB1BFD010DC09F
:1025A000AA1FBB1FEE1FFF1FA217B307E407F50703
:1025B00020F0A21BB30BE40BF50B661F771F881FDF
:1025C000991F1A9469F760957095809590959B0175
:1025D000AC01BD01CF010895EE0FFF1F881F8BBF17
:1025E0000790F691E02D1994AA1BBB1B51E107C07F
:1025F000AA1FBB1FA617B70710F0A61BB70B881F93
:10260000991F5A95A9F780959095BC01CD01089521
:10261000FB01DC0101900D920020E1F70895F89490
:02262000FFCFEA
:102622000007050700000000002C039602C3027990
:1026320003F402D202E602000000002C08960248CF
:102642000647060D0A006E616E00696E66006F76BF
:10265200660048756D69646974793A200025202006
:1026620054656D70657261747572653A2000090077
:1026720043200056616C6F722072657369737469CE
:10268200766F204C44523A200031303030206C7545
:1026920078003530206C757800313030206C7578D8
:1026A200003130206C757800302E31206C75780046
:1026B20056656C6F63696461642064656C20766939
:1026C200656E746F3A20004E6F206C6C756576658E
:1026D2000054656D70200001430068756D2000256F
:1026E200004C756D20005720532000206D2F730081
:1026F2004C6C75657665202020004E6F204C6C7501
:042702006576650093
:00000001FF
