:020000040000FA
:100000000C942B020C945C020C945C020C945C0229
:100010000C945C020C945C020C945C020C945C02E8
:100020000C945C020C945C020C945C020C945C02D8
:100030000C945C020C945C020C945C020C945C02C8
:100040000C945C020C94F3090C945C020C945C021A
:100050000C945C020C945C020C945C020C94A90954
:100060000C945C020C9473090C9449090C945C0286
:100070000C945C020C945C020C945C020C945C0288
:100080000C945C020C945C020C945C020C945C0278
:100090000C945C020C945C020C945C020C945C0268
:1000A0000C945C020C945C020C945C020C945C0258
:1000B0000C945C020C945C020C945C020C945C0248
:1000C0000C945C020C945C020C945C020C945C0238
:1000D0000C945C020C945C020C945C020C945C0228
:1000E0000C945C020C94FA030C94F6030C94EE034B
:1000F0000C9411040C9479030C941B040C94D202FC
:100100000C9448060C9415040C942C080C940304CD
:100110000C941F040C94F4020C9496020C94470661
:100120000C94FD030C942C030C9428040C94E6020C
:100130000C94F2030C9429040C942D040C940D04DB
:100140000C9407040C9423040C94680A0C94C302C6
:100150000C94E803000000000000005F00000007AE
:10016000000700147F147F14242A7F2A1223130807
:10017000646236495522500005030000001C2241EC
:10018000000041221C0014083E081408083E08081C
:1001900000503000000808080808006060000020D7
:1001A000100804023E5149453E00427F4000426132
:1001B0005149462141454B311814127F10274545BE
:1001C00045393C4A494930017109050336494949D5
:1001D00036064949291E0036360000005636000012
:1001E00008142241001414141414004122140802AB
:1001F00001510906324979413E7E1111117E7F4934
:100200004949363E414141227F4141221C7F4949B3
:1002100049417F090909013E4149497A7F08080897
:100220007F00417F41002040413F017F081422416F
:100230007F404040407F020C027F7F0408107F3ED9
:100240004141413E7F090909063E4151215E7F0936
:10025000192946464949493101017F01013F404082
:10026000403F1F2040201F3F4038403F6314081488
:100270006307087008076151494543007F41410009
:1002800002040810200041417F00040201020440E2
:1002900040404040000102040020545454787F48FC
:1002A0004444383844444420384444487F38545403
:1002B0005418087E0901020C5252523E7F08040471
:1002C0007800447D40002040443D007F10284400D9
:1002D00000417F40007C041804787C0804047838CE
:1002E000444444387C14141408081414187C7C0802
:1002F0000404084854545420043F4440203C4040E7
:10030000207C1C2040201C3C4030403C44281028CD
:10031000440C5050503C4464544C44000836410056
:1003200000007F0000004136080010080810080097
:100330000000000000002100240027002A002D00FA
:100340003000330001010000040107010A01000030
:100350002200250028002B002E003100340002016D
:100360000000050108010B0100000A0B02090C0D39
:100370000E08070304010000000000000000000058
:10038000000000000000000000000000000000006D
:10039000000000001211100000000000000000002A
:1003A000000000000000000000000000000000004D
:1003B00020002300260029002C002F00320000011D
:1003C00000000301060109010505050507050808E8
:1003D0000808020202020A0A0808040404040101CF
:1003E00001010101010103030303030303030407E4
:1003F00007070C0C0C0C0C0C0C0C0202020206067B
:100400000606060606060B0B0B0B0B0B0B0B01026D
:100410001020200808102040102040800201020116
:1004200008040201010204081020408080402010CE
:100430000804020180040201804020100804020127
:10044000080402010102040810204080010204088F
:1004500010204080680A11241FBECFEFD1E2DEBF1A
:10046000CDBF00E00CBF12E0A0E0B2E0E6E9F6E2AA
:1004700000E00BBF02C007900D92A43EB107D9F770
:1004800024E0A4EEB2E001C01D92A831B207E1F76A
:1004900012E0CBE2D2E000E006C021970109802FF4
:1004A000FE010E942613CA32D10780E00807A9F78F
:1004B0000E94C80A0C9449130C940000CF92DF925A
:1004C000EF92FF92CF93DF93B0910C04A0E08111E3
:1004D000AB2F80910D0490E0880F991FAC0142551D
:1004E0005C4FC0901204D0901304E0901404F0907C
:1004F000150430E020E0FA01C591D491E881B901FA
:1005000090E080E0EB23EA130AC02F5F3F4F6C15A9
:100510007D058E059F0578F36FEF7FEFCB01DF91AF
:10052000CF91FF90EF90DF90CF900895AF92BF9260
:10053000CF92DF92EF92FF920F931F93CF93DF93AF
:100540006C017B018B01040F151FEB015E01AE18DE
:10055000BF08C017D10759F06991D601ED91FC9100
:100560000190F081E02DC6011995892B79F7C5011D
:10057000DF91CF911F910F91FF90EF90DF90CF907F
:10058000BF90AF900895FC01538D448D252F30E02E
:10059000842F90E0821B930B541710F0CF96089590
:1005A00001970895FC01918D828D981761F0A28DBD
:1005B000AE0FBF2FB11D5D968C91928D9F5F9F7383
:1005C000928F90E008958FEF9FEF0895FC01918D39
:1005D000828D981731F0828DE80FF11D858D90E0A6
:1005E00008958FEF9FEF0895FC01918D228D892F43
:1005F00090E0805C9F4F821B91098F73992708952B
:1006000089E193E00E94F40221E0892B09F420E0C3
:10061000822F0895FC01A48DA80FB92FB11DA35AF4
:10062000BF4F2C91848D90E001968F739927848F12
:10063000A689B7892C93A089B1898C918370806435
:100640008C93938D848D981306C00288F389E02DD6
:1006500080818F7D80830895EF92FF920F931F9387
:10066000CF93DF93EC0181E0888F9B8D8C8D981365
:100670001AC0E889F989808185FF15C09FB7F89471
:10068000EE89FF896083E889F989808183708064BD
:1006900080839FBF81E090E0DF91CF911F910F9108
:1006A000FF90EF900895F62E0B8D10E00F5F1F4F17
:1006B0000F731127E02E8C8D8E110CC00FB607FC26
:1006C000FACFE889F989808185FFF5CFCE010E94B4
:1006D0000A03F1CFEB8DEC0FFD2FF11DE35AFF4F15
:1006E000F0829FB7F8940B8FEA89FB898081806242
:1006F000CFCFCF93DF93EC01888D8823B9F0AA89FF
:10070000BB89E889F9898C9185FD03C0808186FDCC
:100710000DC00FB607FCF7CF8C9185FFF2CF80811B
:1007200085FFEDCFCE010E940A03E9CFDF91CF9183
:10073000089580E090E0892B29F00E940003811148
:100740000E94000080E090E0892B49F080E090E07A
:10075000892B29F00E94000081110E94000080E096
:1007600090E0892B49F080E090E0892B29F00E94ED
:10077000000081110E94000080E090E0892B49F088
:1007800080E090E0892B29F00E94000081110C94F8
:10079000000008958150823108F05AC0E82FF0E03F
:1007A0008827EA52FC4F8F4F0C942613F603FA0366
:1007B000E803EE03F2032804FD03030407040D0419
:1007C000110415041B041F042804230429042D0408
:1007D000809180008F7780938000089580918000C1
:1007E0008F7DF9CF80918000877FF5CF84B58F779B
:1007F00084BD089584B58F7DFBCF8091B0008F7745
:100800008093B00008958091B0008F7DF9CF8091E2
:1008100090008F77809390000895809190008F7D55
:10082000F9CF80919000877FF5CF8091A0008F77DE
:100830008093A00008958091A0008F7DF9CF8091D2
:10084000A000877FF5CF809120018F7780932001D2
:100850000895809120018F7DF9CF80912001877FBD
:10086000F5CFCF93DF93282F30E0F901E859FC4F03
:100870008491F901E25FFB4FD491F901E853FC4FF9
:10088000C491CC23A1F081110E94CA03EC2FF0E0A7
:10089000EE0FFF1FE255FC4FA591B491EC91ED23B3
:1008A00081E090E009F480E0DF91CF91089580E04D
:1008B00090E0FACF1F93CF93DF93282F30E0F90118
:1008C000E859FC4F8491F901E25FFB4FD491F901A3
:1008D000E853FC4FC491CC23A9F0162F81110E943C
:1008E000CA03EC2FF0E0EE0FFF1FE25BFC4FA59177
:1008F000B4918FB7F894EC91111108C0D095DE2314
:10090000DC938FBFDF91CF911F910895DE2BF8CF3D
:10091000CF93DF9390E0FC01E25FFB4F249188537B
:100920009C4FFC0184918823C9F090E0880F991FA7
:10093000FC01EC5CFC4FA591B491FC01E25BFC4F27
:10094000C591D49161110DC09FB7F8948C912095F9
:1009500082238C938881282328839FBFDF91CF91A6
:100960000895623051F49FB7F8943C91822F80959E
:1009700083238C93E8812E2BEFCF8FB7F894EC91E3
:100980002E2B2C938FBFEACF863308F0865320910D
:100990007B00982F9870277F922B90937B00877015
:1009A000806480937C0080917A00806480937A00D8
:1009B00080917A0086FDFCCF80917800909179003B
:1009C00008953FB7F8948091E9029091EA02A091CE
:1009D000EB02B091EC0226B5A89B05C02F3F19F0A1
:1009E0000196A11DB11D3FBFBA2FA92F982F8827AF
:1009F000BC01CD01620F711D811D911D42E0660F8A
:100A0000771F881F991F4A95D1F708958F929F925B
:100A1000AF92BF92CF92DF92EF92FF924B015C01B7
:100A20000E94E1046B017C010E94E1046C197D09C4
:100A30008E099F09683E734081059105A8F321E066
:100A4000821A9108A108B10888EEC80E83E0D81E6A
:100A5000E11CF11C81149104A104B10429F7FF9059
:100A6000EF90DF90CF90BF90AF909F908F900895C0
:100A7000CF92DF92EF92FF920F931F93CF93DF936A
:100A8000CDB7DEB7C054D1400FB6F894DEBF0FBE6D
:100A9000CDBF2FB7F8948091150390911603A091C4
:100AA0001703B09118032FBF40910E0450910F040B
:100AB00060911004709111048C019D01041B150BB1
:100AC000260B370BB901A801403D57406105710560
:100AD00090F480911604C05CDE4F0FB6F894DEBF30
:100AE0000FBECDBFDF91CF911F910F91FF90EF907F
:100AF000DF90CF90089580930E0490930F04A093FD
:100B00001004B0931104109209041092080410927A
:100B10000704109206041092050462E080910A0412
:100B20000E94880461E070E080E090E00E94060589
:100B300061E080910A040E94880460E080910A04C8
:100B40000E945A0480910B048551823020F58BE27B
:100B500091E10197F1F762E080910A040E94880414
:100B60008091170490E08230910538F0880F991F2A
:100B7000880F991F05970197F1F7F89480E00E947C
:100B80005E026F3F7F4F8F4F9F4F61F410921604AC
:100B9000789480E0A0CF64E170E080E090E00E9473
:100BA0000605D9CF81E00E945E026F3F7F4F8F4FD5
:100BB0009F4F61F38E010F5F1F4F6E018FEBC81ABD
:100BC0008EEFD80A780180E00E945E02F701608310
:100BD00071838283938381E00E945E02F7016483C4
:100BE000758386839783F8E0EF0EF11CEC14FD0407
:100BF00051F7789430E020E0F801C080D180E280A5
:100C0000F3804481558166817781FFEFCF16DF063F
:100C1000EF06FF0631F04F3F8FEF58076807780760
:100C200019F410921604B5CFF90183E0F595E79514
:100C30008A95E1F7EB5FFB4F8081880FC416D506DC
:100C4000E606F70610F180832F5F3F4F085F1F4FC6
:100C50002832310589F640910904209105048091DC
:100C60000604280F3327331F80910704280F311DF6
:100C700080910804820F932F911D99274817190618
:100C800081F681E08093160426CF8160DCCF089541
:100C900090E080E00895FB0101900020E9F7319792
:100CA000AF01461B570BDC01ED91FC910280F381F3
:100CB000E02D19948F929F92AF92BF92EF92FF9284
:100CC0000F931F93CF93DF93CDB7DEB7A1970FB6E6
:100CD000F894DEBF0FBECDBF7C01FA01CB0119A293
:100CE000223008F42AE08E010F5D1F4F822E912CD6
:100CF000B12CA12CBF01A50194010E940413F9019C
:100D0000CA016A300CF5605DD8016E938D01232B0A
:100D1000242B252B79F790E080E0109721F0BD017E
:100D2000C7010E944B06A1960FB6F894DEBF0FBE16
:100D3000CDBFDF91CF911F910F91FF90EF90BF90AA
:100D4000AF909F908F900895695CDECFCF93DF9333
:100D5000BC0189E193E00E944B06EC0163E272E082
:100D600089E193E00E944B068C0F9D1FDF91CF918C
:100D700008950C944B062F923F924F925F926F9280
:100D80007F928F929F92AF92BF92CF92DF92EF921B
:100D9000FF921F93CF93DF93EC016A017B01722EC8
:100DA000AB019601CB01B6010E94D61266E272E059
:100DB000811126C046015701E894B7F82FEF3FEFA5
:100DC0004FE75FE7C501B4010E94D61281110CC044
:100DD0002FEF3FEF4FE75FE7C501B4010E94C61058
:100DE0006AE272E0181664F02FEF3FEF4FE75FE41E
:100DF000C701B6010E941E121816B4F46EE272E02A
:100E0000CE01DF91CF911F91FF90EF90DF90CF90B7
:100E1000BF90AF909F908F907F906F905F904F901A
:100E20003F902F900C944B062FEF3FEF4FE75FEC76
:100E3000C701B6010E94C61087FDE0CF20E030E078
:100E4000A901C701B6010E94C610312C212C87FFD1
:100E50000DC0E881F9810190F081E02D6DE2CE01B5
:100E600019951C01F7FAF094F7F8F09410E060E09F
:100E700070E080E09FE3711641F020E030E040E256
:100E800051E40E94CB101F5FF6CFA70196010E948C
:100E90005A102B013C010E943D114B015C012AE0DC
:100EA000BC01A401CE010E945A067C01E20CF31C95
:100EB0001123E1F1C501B4010E946C119B01AC0149
:100EC000C301B2010E9459104B015C01E881F98114
:100ED0000190F081E02D6EE2CE011995E80EF91E29
:100EE000115020F120E030E040E251E4C501B401AE
:100EF0000E9423122B013C010E943D114B01B12C99
:100F0000A12C2AE0B501A401CE010E945A06E80EE8
:100F1000F91EC501B4010E946C119B01AC01C30113
:100F2000B2010E9459104B015C01DACFC701DF9179
:100F3000CF911F91FF90EF90DF90CF90BF90AF9037
:100F40009F908F907F906F905F904F903F902F90E9
:100F50000895CF93DF93AB01BC0122E089E193E0D8
:100F60000E94BB06EC0163E272E089E193E00E941B
:100F70004B068C0F9D1FDF91CF910895EF92FF924A
:100F80000F931F93CF93DF93EC01042F8E810E9468
:100F90005A0460E088850E945A04FC80ED8018E0C5
:100FA000602F661F6627661F8E2D0E945A04000F51
:100FB00061E08F2D0E945A0460E08F2D0E945A0438
:100FC000115071F761E08885DF91CF911F910F91EA
:100FD000FF90EF900C945A04CF93DF93C6EBD3E0CD
:100FE0001C8690E06B8529E3629F612D1124669534
:100FF00070E06F5F7F4F0E94F0128D8740E860E0E5
:10100000CE010E94BE074D85406460E0CE01DF91B5
:10101000CF910C94BE07CF93DF9380E00E94EC0742
:10102000D0E0C0E08091C103869586958695909129
:10103000C003899FC0011124C817D90740F440E0BC
:1010400061E086EB93E00E94BE072196EBCF80E043
:10105000DF91CF910C94EC07CF92DF92EF92FF9249
:101060000F931F93CF93DF9300D01F921F92CDB7A2
:10107000DEB767FD6BC07C01862F90E0603208F41C
:1010800055C0809725E0289FB001299F700D11243D
:101090006C5A7E4F45E050E0CE0101960E943A1016
:1010A0008E010F5F1F4F680185E0C80ED11CF8014B
:1010B00041918F01F70186858111409561E0C7015B
:1010C0000E94BE070C151D0591F7F7014685419555
:1010D00061E0C7010E94BE07F701848590E0069693
:1010E000628570E00E94F0128487892B79F48585EF
:1010F00090E00196638529E3629F612D1124669536
:1011000070E06F5F7F4F0E94F012858781E090E072
:101110000F900F900F900F900F90DF91CF911F9134
:101120000F91FF90EF90DF90CF900895880F991F57
:10113000F701E80FF91F078510890115110509F05E
:10114000B2CF45E050E064E571E0A6CF90E080E0EA
:10115000DFCFCF93DF93D0E0C0E060E0CE010E940C
:101160004B102196C11580E1D807B9F7DF91CF91D7
:1011700008959F92AF92BF92CF92DF92EF92FF922B
:101180000F931F93CF93DF93CDB7DEB76A970FB658
:10119000F894DEBF0FBECDBFE090E602F090E7020C
:1011A000E11480E1F80608F06DC0FE0171968AE056
:1011B000DF011D928A95E9F7809111039091120346
:1011C000A0911303B091140389839A83AB83BC83EA
:1011D00080910D0390910E03A0910F03B091100325
:1011E0008D839E83AF83B88780910303909104031E
:1011F000A0910503B091060389879A87AB87BC87C6
:101200008091FF0290910003A0910103B09102032D
:101210008D879E87AF87B88B8091FF02898B7097EF
:101220006F0110E000E0D6019D906D015701A00E06
:10123000B11EC5010E944310981621F0692DC50109
:101240000E944B100F5F1F4F0A31110561F780910B
:10125000E6029091E7024A969093E7028093E602B5
:101260006A960FB6F894DEBF0FBECDBFDF91CF9167
:101270001F910F91FF90EF90DF90CF90BF90AF90B4
:101280009F9008950E94A9081092E7021092E6022A
:10129000E7CF1F920F920FB60F9211240BB60F9249
:1012A0002F933F934F935F936F937F938F939F936E
:1012B000AF93BF93EF93FF9389E193E00E940A03FA
:1012C000FF91EF91BF91AF919F918F917F916F911E
:1012D0005F914F913F912F910F900BBE0F900FBEDA
:1012E0000F901F9018951F920F920FB60F92112416
:1012F0000BB60F922F938F939F93EF93FF93E091F1
:101300002903F0912A038081E0912F03F0913003AB
:1013100082FD1DC09081809132038F5F8F73209179
:101320003303821741F0E0913203F0E0E75EFC4FB7
:10133000958F80933203FF91EF919F918F912F9121
:101340000F900BBE0F900FBE0F901F9018958081CD
:10135000F2CF1F920F920FB60F9211242F933F934B
:101360008F939F93AF93BF93809115039091160332
:10137000A0911703B09118033091E80223E0230FE6
:101380002D3758F50196A11DB11D2093E8028093D9
:10139000150390931603A0931703B093180380913D
:1013A000E9029091EA02A091EB02B091EC02019661
:1013B000A11DB11D8093E9029093EA02A093EB0274
:1013C000B093EC02BF91AF919F918F913F912F917C
:1013D0000F900FBE0F901F90189526E8230F0296CE
:1013E000A11DB11DD2CF1F920F920FB60F921124E3
:1013F0000BB60F92CF92DF92EF92FF920F931F9353
:101400002F933F934F935F936F937F938F939F930C
:10141000AF93BF93EF93FF93CF93DF93CDB7DEB737
:101420006A97DEBFCDBF8091E4029091E5028230E1
:10143000910561F40E94B9088091E4029091E5025F
:1014400001969093E5028093E40221C084309105D7
:10145000B9F7E090E602F090E7026E018BE1C80E6A
:10146000D11C8E010F5F1F4FE01AF10AC701800FD8
:10147000911F0E944310F80181938F01EC15FD0527
:10148000A9F70E94B9081092E5021092E4026A9648
:101490000FB6F894DEBF0FBECDBFDF91CF91FF91A5
:1014A000EF91BF91AF919F918F917F916F915F91DC
:1014B0004F913F912F911F910F91FF90EF90DF90EF
:1014C000CF900F900BBE0F900FBE0F901F901895EE
:1014D000E9E1F3E01382128288EE93E0A0E0B0E04D
:1014E00084839583A683B78389E092E09183808388
:1014F00085EC90E09587848784EC90E097878687D9
:1015000080EC90E0918B808B81EC90E0938B828BD0
:1015100082EC90E0958B848B86EC90E0978B868BA9
:10152000118E128E138E148EA5E0B4E087E315960B
:101530008C93159786E116968C931697E5E4F4E064
:10154000E4911796EC931797EFEFF3E0E491189678
:10155000EC93189740E85EE360E070E01D964D93D1
:101560005D936D937C935097E6EBF3E013821282C8
:101570008BE192E09183808383E0848384E08583A0
:1015800085E0868386E0878387E0808716860895D6
:10159000CF93DF9300D000D000D01F92CDB7DEB73D
:1015A000789484B5826084BD84B5816084BD85B53E
:1015B000826085BD85B5816085BD80916E0081604A
:1015C00080936E00109281008091810082608093F0
:1015D00081008091810081608093810080918000F2
:1015E0008160809380008091B10084608093B1001D
:1015F0008091B00081608093B00080919100826002
:1016000080939100809191008160809391008091FE
:1016100090008160809390008091A100826080930F
:10162000A1008091A10081608093A1008091A00021
:1016300081608093A00080912101826080932101CC
:10164000809121018160809321018091200181603E
:101650008093200180917A00846080937A00809149
:101660007A00826080937A0080917A008160809312
:101670007A0080917A00806880937A001092C1008D
:101680000E94A9081092800010928100109285009B
:10169000109284008FEF9FEF9093890080938800D1
:1016A000809181008D608093810080916F008260C5
:1016B00080936F00E0912903F0912A0382E08083F8
:1016C000E0912503F09126031082E0912703F09129
:1016D00028038FEC808310923103E0912D03F09169
:1016E0002E0386E08083E0912B03F0912C03808110
:1016F00080618083E0912B03F0912C0380818860CE
:101700008083E0912B03F0912C038081806880839B
:10171000E0912B03F0912C0380818F7D808360E02A
:1017200086E30E94880462E080910A040E94880493
:101730002FB7F8948091150390911603A091170389
:10174000B09118032FBF805D9740A109B109809324
:101750000E0490930F04A0931004B093110487E338
:101760008093170460E088E30E94880460E089E0C9
:101770000E94880460E088E00E94880484E58093E9
:10178000C00380E38093C1031092BF031092C20391
:101790001092C303E5ECF3E080E4DF011D928A952B
:1017A000E9F761E08091BA030E94880461E08091CA
:1017B000BB030E94880461E08091BC030E948804FE
:1017C00061E08091BD030E94880461E08091BE03C6
:1017D0000E94880461E08091BD030E945A0461E088
:1017E0008091BE030E945A0460E08091BD030E9474
:1017F0005A0464E670E080E090E00E94060561E033
:101800008091BD030E945A0441E260E086EB93E0C0
:101810000E94BE0743E160E086EB93E00E94BE07B2
:101820008091BF0342EC813039F440EE60E086EBFA
:1018300093E00E94BE0745E060E086EB93E00E94E3
:10184000BE0740E260E086EB93E00E94BE0749E0FD
:1018500060E086EB93E00E94BE070E940B0848E020
:1018600060E086EB93E00E94BE074CE060E086EB10
:1018700093E00E94BE0764E670E080E090E00E9482
:10188000060540E860E086EB93E00E94BE0740E476
:1018900060E086EB93E00E94BE0780E092E09093C8
:1018A000C8038093C7030E940B08812C912C98E4F5
:1018B000A92E92E4B92E86E30E94C404BC01990FBC
:1018C000880B990B0E946E112AE038E240EA5BE334
:1018D0000E9423126B017C0120E030E04AE753E4D0
:1018E0000E9423122B013C01A701960160E070E0E9
:1018F00080EA90E40E9459109B01AC01C301B2013F
:101900000E94CB106B017C0120E030E048EC52E4F7
:101910000E941E1287FD57C0A701960160E070E08B
:1019200088EC92E40E94591026E938E342E759EB2B
:101930000E9423129B01AC016DEF79E68CE19EE3DE
:101940000E9459100E9496122EED3AE148EC5EE397
:101950000E94591026E938E342EF58EB0E94CB1061
:101960006093ED027093EE028093EF029093F00289
:101970006091ED027091EE028091EF029091F00281
:1019800060931103709312038093130390931403D5
:101990000E94A90760ED77E080E090E00E940605D4
:1019A0000E943805882351F080910B048B3030F071
:1019B0008D30B0F08551823008F447C060E070E0AF
:1019C00080EC9FE729C020E030E048EC52E4C701FA
:1019D000B6010E9459102DEC3CEC4CEC5EE3BECFFE
:1019E0006091060470E090E080E00E946E112DECA2
:1019F0003CEC4CEC5DE30E9423126B017C01609196
:101A0000050470E090E080E00E946E119B01AC0143
:101A1000C701B6010E945A1060930D0370930E0324
:101A200080930F03909310030E943805882341F0A0
:101A300080910B048C3009F4F2C1C8F48B3081F131
:101A400060E070E080EC9FE753C060910504709106
:101A5000060476276727762790E080E00E946C11C5
:101A60002DEC3CEC4CEC5DE30E942312D5CF85516C
:101A7000823030F710910704612F70E0762F6627CF
:101A800066277F7780910804682B90E080E00E94B1
:101A90006C112DEC3CEC4CEC5DE30E942312DBC19D
:101AA0006091070470E090E080E00E946C116B018F
:101AB0007C011091080417FF0AC0AC019B0160E093
:101AC00070E080E89FEB0E9459106B017C011F7051
:101AD000612F70E090E080E00E946E112DEC3CECF4
:101AE0004CEC5DE30E942312A70196010E945A105C
:101AF0006093090370930A0380930B0390930C0384
:101B000062E372E089E193E00E94B90640910D031F
:101B100050910E0360910F037091100322E089E150
:101B200093E00E94BB066DE372E089E193E00E94BE
:101B3000B9064091090350910A0360910B0370911B
:101B40000C0322E089E193E00E94BB066EE472E0A0
:101B500089E193E00E94B90660EB89E193E00E947D
:101B60002C0360E572E089E193E00E94B90663E22C
:101B700072E089E193E00E944B0688E30E94C4046E
:101B8000BC01990F880B990B0E946E112AE038E274
:101B900040EA5BE30E9423126B017C0120E030E00D
:101BA0004AE754E40E9423122B013C01A70196014D
:101BB00060E070E080EA90E40E9459109B01AC0163
:101BC000C301B2010E94CB106B017C01C092F102F3
:101BD000D092F202E092F302F092F40220E030E0C0
:101BE00046E953E40E94C61018160CF438C180E090
:101BF00090E0AAE7B4E48093030390930403A093D6
:101C00000503B093060363E572E089E193E00E9467
:101C1000B9066091F1027091F2028091F302909105
:101C2000F4020E94A90789E692E00E94A60668EEE7
:101C300073E080E090E00E94060589E30E94C404FE
:101C4000BC01990F880B990B0E946E112AE038E2B3
:101C500040EA5BE30E94231220E030E040EC50E4D5
:101C60000E9423126093FF0270930003809301038C
:101C70009093020360E972E089E193E00E94B90663
:101C80004091FF02509100036091010370910203A3
:101C900022E089E193E00E94BB0668ED72E089E1F1
:101CA00093E00E94B9066CEC72E089E193E00E9437
:101CB000B90663E272E089E193E00E944B0689E095
:101CC0000E943104892B09F0BBC18AE0E0EDF2E00B
:101CD000DE01119601900D928A95E1F7BE016F5FCA
:101CE0007F4F85EF92E00E9442138DED92E00E94BB
:101CF000A60688E00E9431048C019093080380932B
:101D000007030E940B080130110509F0ACC140E245
:101D100060E086EB93E00E94BE0780E00E94EC0743
:101D200061EB72E086EB93E00E94B90640911103EB
:101D300050911203609113037091140321E086EB1C
:101D400093E00E94BB0667EB72E086EB93E00E9493
:101D5000B90681E00E94EC076AEB72E086EB93E043
:101D60000E94B90640910D0350910E0360910F033C
:101D70007091100322E086EB93E00E94BB066FEBAC
:101D800072E086EB93E00E94B90682E00E94EC07C5
:101D900061EC72E086EB93E00E94B9064091030388
:101DA00050910403609105037091060322E086EBD5
:101DB00093E00E94BB066DE672E086EB93E00E9422
:101DC000B90683E00E94EC0766EC72E086EB93E0D4
:101DD0000E94B9064091FF025091000360910103F7
:101DE0007091020322E086EB93E00E94BB066BEC4D
:101DF00072E086EB93E00E94B90684E00E94EC0753
:101E000065EF72E086EB93E00E94B90668EB7BE039
:101E100080E090E00E9406050E9499034CCD10914D
:101E20000704612F70E090E080E00E946C116B016C
:101E30007C01609108046F7070E090E080E00E9487
:101E40006E112DEC3CEC4CEC5DE30E942312A701DB
:101E500096010E945A1017FF4BCE905849CE20E0B1
:101E600030E046E953E4C701B6010E941E1218167D
:101E70002CF520E030E84BEB54E4C701B6010E949A
:101E8000C61087FF1BC08092030390920403A092A8
:101E90000503B092060363E572E089E193E00E94D6
:101EA000B9066091F1027091F2028091F302909173
:101EB000F4020E94A90782E792E0B7CE20E030E862
:101EC0004BEB54E4C701B6010E941E1287FD29C0E6
:101ED00020E030E44CE156E4C701B6010E94C61090
:101EE00087FF1FC080E090E0A8ECB2E4809303037A
:101EF00090930403A0930503B093060363E572E097
:101F000089E193E00E94B9066091F1027091F202BA
:101F10008091F3029091F4020E94A90789E792E070
:101F200084CE20E030E44CE156E4C701B6010E94C3
:101F30001E1287FD29C020E038EB48E857E4C701AE
:101F4000B6010E94C61087FF1FC080E090E0A0E2AB
:101F5000B1E48093030390930403A0930503B0932B
:101F6000060363E572E089E193E00E94B90660919F
:101F7000F1027091F2028091F3029091F4020E94BA
:101F8000A90781E892E051CE20E038EB48E857E419
:101F9000C701B6010E941E1287FD29C020E03CE760
:101FA00042E159E4C701B6010E94C61087FF1FC075
:101FB00080E090E0A0E8BFE38093030390930403E4
:101FC000A0930503B093060363E572E089E193E013
:101FD0000E94B9066091F1027091F2028091F302C1
:101FE0009091F4020E94A9078AE892E01ECE20E0B8
:101FF0003CE742E159E4C701B6010E941E1287FD89
:1020000016CE8DEC9CECACECBDE380930303909377
:102010000403A0930503B093060363E572E089E12E
:1020200093E00E94B9066091F1027091F2028091F2
:10203000F3029091F4020E94A90788E892E0F5CD9E
:102040008AE0EAEDF2E0DE01119601900D928A95A8
:10205000E1F7BE016F5F7F4F85EF92E00E94421370
:1020600087EA92E044CE44E260E086EB93E00E948F
:10207000BE07CCCEFB01DC0102C005900D924150A1
:102080005040D8F70895F999FECF92BD81BDF89AD6
:10209000992780B50895262FF999FECF1FBA92BDD2
:1020A00081BD20BD0FB6F894FA9AF99A0FBE019639
:1020B00008955058BB27AA270E9471100C94E41170
:1020C0000E94D61138F00E94DD1120F039F49F3FB4
:1020D00019F426F40C94D3110EF4E095E7FB0C945C
:1020E000CD11E92F0E94F51158F3BA176207730753
:1020F0008407950720F079F4A6F50C9417120EF4D6
:10210000E0950B2EBA2FA02D0B01B90190010C0107
:10211000CA01A0011124FF27591B99F0593F50F41F
:10212000503E68F11A16F040A22F232F342F442777
:10213000585FF3CF469537952795A795F04053956F
:10214000C9F77EF41F16BA0B620B730B840BBAF03F
:102150009150A1F0FF0FBB1F661F771F881FC2F7AA
:102160000EC0BA0F621F731F841F48F487957795BE
:102170006795B795F7959E3F08F0B0CF9395880F78
:1021800008F09927EE0F9795879508950E94A91159
:1021900008F481E008950E94DF100C94E4110E947D
:1021A000DD1158F00E94D61140F029F45F3F29F06C
:1021B0000C94CD1151110C9418120C94D3110E944F
:1021C000F51168F39923B1F3552391F3951B550B42
:1021D000BB27AA2762177307840738F09F5F5F4FFA
:1021E000220F331F441FAA1FA9F335D00E2E3AF039
:1021F000E0E832D091505040E695001CCAF72BD051
:10220000FE2F29D0660F771F881FBB1F26173707A1
:102210004807AB07B0E809F0BB0B802DBF01FF27D3
:1022200093585F4F3AF09E3F510578F00C94CD11D2
:102230000C9418125F3FE4F3983ED4F3869577959B
:102240006795B795F7959F5FC9F7880F911D96958C
:10225000879597F90895E1E0660F771F881FBB1FE8
:10226000621773078407BA0720F0621B730B840B95
:10227000BA0BEE1F88F7E09508950E94FD1188F0D3
:102280009F5798F0B92F9927B751B0F0E1F0660F3A
:10229000771F881F991F1AF0BA95C9F714C0B1307B
:1022A00091F00E941712B1E008950C941712672F55
:1022B000782F8827B85F39F0B93FCCF386957795AA
:1022C0006795B395D9F73EF4909580957095619593
:1022D0007F4F8F4F9F4F0895E89409C097FB3EF4BE
:1022E00090958095709561957F4F8F4F9F4F992363
:1022F000A9F0F92F96E9BB279395F69587957795E1
:102300006795B795F111F8CFFAF4BB0F11F460FFA0
:102310001BC06F5F7F4F8F4F9F4F16C0882311F0F8
:1023200096E911C0772321F09EE8872F762F05C00C
:10233000662371F096E8862F70E060E02AF09A95A7
:10234000660F771F881FDAF7880F9695879597F99C
:102350000895990F0008550FAA0BE0E8FEEF161636
:102360001706E807F907C0F012161306E407F50789
:1023700098F0621B730B840B950B39F40A2661F0FD
:10238000232B242B252B21F408950A2609F4A140A0
:10239000A6958FEF811D811D089597F99F6780E8AD
:1023A00070E060E008959FEF80EC089500240A94A7
:1023B0001616170618060906089500240A94121620
:1023C0001306140605060895092E0394000C11F453
:1023D000882352F0BB0F40F4BF2B11F460FF04C000
:1023E0006F5F7F4F8F4F9F4F089557FD9058440F59
:1023F000551F59F05F3F71F04795880F97FB991F64
:1024000061F09F3F79F08795089512161306140620
:10241000551FF2CF4695F1DF08C0161617061806AD
:10242000991FF1CF86957105610508940895E89488
:10243000BB2766277727CB0197F908950E94A9113A
:1024400008F48FEF08950E9436120C94E4110E9454
:10245000D61138F00E94DD1120F0952311F00C9474
:10246000CD110C94D31111240C9418120E94F51163
:1024700070F3959FC1F3950F50E0551F629FF001D7
:10248000729FBB27F00DB11D639FAA27F00DB11DF0
:10249000AA1F649F6627B00DA11D661F829F222779
:1024A000B00DA11D621F739FB00DA11D621F839F00
:1024B000A00D611D221F749F3327A00D611D231FD6
:1024C000849F600D211D822F762F6A2F11249F5724
:1024D00050409AF0F1F088234AF0EE0FFF1FBB1F27
:1024E000661F771F881F91505040A9F79E3F5105E6
:1024F00080F00C94CD110C9418125F3FE4F3983ED9
:10250000D4F3869577956795B795F795E7959F5F8F
:10251000C1F7FE2B880F911D9695879597F9089521
:1025200019F416F40C94D3110C94DB120E94FD11D3
:10253000B8F39923C9F3B6F39F57550B87FF0E9451
:10254000E9120024A0E640EA90018058569597953C
:1025500028F4805C660F771F881F20F02617370746
:10256000480730F4621B730B840B202931294A2B56
:10257000A69517940794202531254A2758F7660F0A
:10258000771F881F20F026173707480730F4620BA3
:10259000730B840B200D311D411DA09581F7B901EE
:1025A000842F9158880F9695879508950E94A911B8
:1025B000880B990B08959F3F31F0915020F4879537
:1025C00077956795B795880F911D9695879597F99B
:1025D000089591505040660F771F881FD2F70895D5
:1025E00097FB072E16F4009407D077FD09D00E94C0
:1025F0002E1307FC05D03EF4909581959F4F0895CA
:10260000709561957F4F0895A1E21A2EAA1BBB1BFE
:10261000FD010DC0AA1FBB1FEE1FFF1FA217B307AE
:10262000E407F50720F0A21BB30BE40BF50B661FC4
:10263000771F881F991F1A9469F760957095809588
:1026400090959B01AC01BD01CF010895EE0FFF1FD6
:10265000881F8BBF0790F691E02D1994AA1BBB1B16
:1026600051E107C0AA1FBB1FA617B70710F0A61B92
:10267000B70B881F991F5A95A9F780959095BC01B3
:10268000CD010895FB01DC0101900D920020E1F7DE
:102690000895F894FFCF0007050700000000002C04
:1026A000039602C3027903F402D202E6020000009C
:1026B000002C089602480647060D0A006E616E005F
:1026C000696E66006F76660048756D696469747935
:1026D0003A200025202054656D7065726174757212
:1026E000653A2000090043200056616C6F72207229
:1026F000657369737469766F204C44523A200031D7
:10270000303030206C7578003530206C75780031B1
:102710003030206C7578003130206C757800302EA8
:1027200031206C75780056656C6F63696461642054
:1027300064656C207669656E746F3A20004E6F2078
:102740006C6C756576650054656D70200001430002
:1027500068756D200025004C756D200057205320B2
:1027600000206D2F73004C6C75657665202020006D
:0A2770004E6F204C6C756576650015
:020000040003F7
:10E000000D9489F10D94B2F10D94B2F10D94B2F129
:10E010000D94B2F10D94B2F10D94B2F10D94B2F1F0
:10E020000D94B2F10D94B2F10D94B2F10D94B2F1E0
:10E030000D94B2F10D94B2F10D94B2F10D94B2F1D0
:10E040000D94B2F10D94B2F10D94B2F10D94B2F1C0
:10E050000D94B2F10D94B2F10D94B2F10D94B2F1B0
:10E060000D94B2F10D94B2F10D94B2F10D94B2F1A0
:10E070000D94B2F10D94B2F10D94B2F10D94B2F190
:10E080000D94B2F10D94B2F10D94B2F10D94B2F180
:10E090000D94B2F10D94B2F10D94B2F10D94B2F170
:10E0A0000D94B2F10D94B2F10D94B2F10D94B2F160
:10E0B0000D94B2F10D94B2F10D94B2F10D94B2F150
:10E0C0000D94B2F10D94B2F10D94B2F10D94B2F140
:10E0D0000D94B2F10D94B2F10D94B2F10D94B2F130
:10E0E0000D94B2F141546D656761323536300041AF
:10E0F000726475696E6F206578706C6F72657220DE
:10E1000073746B3530305632206279204D4C530099
:10E11000426F6F746C6F616465723E004875683F52
:10E1200000436F6D70696C6564206F6E203D200048
:10E130004350552054797065202020203D20005FF9
:10E140005F4156525F415243485F5F3D2000415658
:10E1500052204C696243205665723D20004743437C
:10E160002056657273696F6E203D20004350552024
:10E1700049442020202020203D20004C6F7720663D
:10E18000757365202020203D20004869676820665F
:10E190007573652020203D200045787420667573D6
:10E1A00065202020203D20004C6F636B2066757336
:10E1B000652020203D20004D617220203720323024
:10E1C000313300312E362E3800342E332E350056A2
:10E1D00023202020414444522020206F7020636F70
:10E1E00064652020202020696E73747275637469E1
:10E1F0006F6E2061646472202020496E74657272B3
:10E20000757074006E6F20766563746F7200726A49
:10E210006D702020006A6D70200057686174207056
:10E220006F72743A00506F7274206E6F7420737541
:10E2300070706F72746564004D7573742062652030
:10E2400061206C6574746572002000577269747483
:10E25000696E672045450052656164696E672045B7
:10E26000450045452065727220636E743D00504F35
:10E27000525400303D5A65726F2061646472003FF1
:10E280003D43505520737461747300403D454550C3
:10E29000524F4D207465737400423D426C696E6B41
:10E2A000204C454400453D44756D70204545505215
:10E2B0004F4D00463D44756D7020464C415348001B
:10E2C000483D48656C70004C3D4C69737420492F83
:10E2D0004F20506F72747300513D51756974005234
:10E2E0003D44756D702052414D00563D73686F7707
:10E2F00020696E7465727275707420566563746FF0
:10E30000727300593D506F727420626C696E6B00BD
:10E310002A0011241FBECFEFD1E2DEBFCDBF01E046
:10E320000CBF12E0A0E0B2E0EEE1FDEF03E00BBFB6
:10E3300002C007900D92A030B107D9F712E0A0E01B
:10E34000B2E001C01D92AE30B107E1F70F9460F367
:10E350000D948DFE01E20EBF0FEF0DBF11241FBE05
:10E360000D9460F30D9400F020E030E040ED57E0B4
:10E3700005C0FA013197F1F72F5F3F4F2817390792
:10E38000C0F308959C01260F311DC901A0E0B0E043
:10E390002F5F3F4FABBFFC018791882361F08093D3
:10E3A000C6008091C00086FFFCCF8091C0008064D1
:10E3B0008093C000EACF08958DE08093C6008091DD
:10E3C000C00086FFFCCF8091C00080648093C000B5
:10E3D0008AE08093C6008091C00086FFFCCF8091C8
:10E3E000C00080648093C00008950F94C2F10F9420
:10E3F000DCF10895FC019081992359F09093C600B7
:10E400008091C00086FFFCCF8091C0008064809323
:10E41000C0003196992379F70895282F982F929567
:10E420009F70892F805D8A3308F0895F8093C600D2
:10E430008091C00086FFFCCF8091C00080648093F3
:10E44000C000822F8F70982F905D9A3308F0995FEB
:10E450009093C6008091C00086FFFCCF8091C000E1
:10E4600080648093C00008959C01FB01853691056E
:10E470001CF46330710594F0C90164E670E00F94F8
:10E480002EFE605D7F4F6093C6008091C00086FFC6
:10E49000FCCF8091C00080648093C0002B30310598
:10E4A00014F43297B4F0C90164E670E00F942EFEC4
:10E4B0006AE070E00F942EFE605D7F4F6093C600AF
:10E4C0008091C00086FFFCCF8091C0008064809363
:10E4D000C000C9016AE070E00F942EFEC0968093E0
:10E4E000C6008091C00086FFFCCF8091C000806490
:10E4F0008093C00008951F93182F8EE692EE60E07F
:10E500000F94C2F11093C6008091C00086FFFCCF2B
:10E510008091C00080648093C0000F94DCF11F9153
:10E5200008952F923F924F925F926F927F928F92B7
:10E530009F92AF92BF92CF92DF92EF92FF920F9392
:10E540001F93DF93CF93CDB7DEB762970FB6F894E2
:10E55000DEBF0FBECDBF382E622ECA01DB015C01CB
:10E560006D01772420E2222E2E010894411C511CBB
:10E570008BC081E0A81680E0B80681E0C80680E084
:10E58000D80628F0C601AA27BB270F940DF2BB2797
:10E59000AD2D9C2D8B2D0F940DF28A2D0F940DF225
:10E5A0002092C6008091C00086FFFCCF8091C00001
:10E5B00080648093C0009DE29093C6008091C0006B
:10E5C00086FFFCCF8091C00080648093C0002092C1
:10E5D000C6008091C00086FFFCCF8091C00080649F
:10E5E0008093C00019828601750188249924A1E0D6
:10E5F0003A1651F03A1620F0B2E03B1661F409C029
:10E600000BBFF701779007C0C7010F9477FE782EF4
:10E6100002C0F7017080872D0F940DF22092C60082
:10E620008091C00086FFFCCF8091C0008064809301
:10E63000C000872D8052F401EF70F0708F3520F408
:10E64000E40DF51D708204C0E40DF51D8EE280839B
:10E650000894E11CF11C011D111D0894811C911CE2
:10E6600090E18916910409F0C2CF80E190E0A0E02A
:10E67000B0E0A80EB91ECA1EDB1E198AC2010F9493
:10E68000FAF10F94DCF16A94662009F072CF629679
:10E690000FB6F894DEBF0FBECDBFCF91DF911F91B3
:10E6A0000F91FF90EF90DF90CF90BF90AF909F9031
:10E6B0008F907F906F905F904F903F902F90089534
:10E6C0002F923F924F925F926F927F928F929F9282
:10E6D000AF92BF92CF92DF92EF92FF920F931F9370
:10E6E000DF93CF93CDB7DEB7CD53D1400FB6F894BB
:10E6F000DEBF0FBECDBF01E20EBF0FEF0DBF94B75F
:10E70000F894A89514BE80916000886180936000A1
:10E7100010926000789493FF05C0E0910002F091A0
:10E7200001021995279A2F9A8091C00082608093E8
:10E73000C00080E18093C40088E18093C1000000A4
:10E74000EE24FF24870144E0A42EB12CCC24DD2448
:10E7500024C0C5010197F1F70894E11CF11C011DCB
:10E76000111D21E2E2162EE4F20620E0020720E06D
:10E77000120718F031E0C32ED12CC801B70127ECE5
:10E780003BE140E050E00F9441FE611571058105C9
:10E79000910519F485B1805885B98091C00087FD35
:10E7A00003C0C114D104A9F2A6014F5F5F4FC25E3E
:10E7B000DE4F59834883CE51D140C25EDE4F8881FF
:10E7C0009981CE51D140019711F00D9410FEC05D9A
:10E7D000DE4F19821882C053D14060E0C15DDE4F28
:10E7E0001882CF52D14088249924C35DDE4F19820C
:10E7F0001882CD52D140C05EDE4F188219821A8233
:10E800001B82C052D140CE5CDE4F188219821A8220
:10E810001B82C253D140EE24FF2487010BBFF701B6
:10E8200007911691C45CDE4F19830883CC53D14005
:10E830000D940BFEC25EDE4F28813981CE51D1404E
:10E840002130310509F52091C600C25EDE4F1982E4
:10E850001882CE51D14022C02F5F3F4F4F4F5F4FA4
:10E86000213082E138078AE7480780E0580780F0C6
:10E87000C45CDE4FE881F981CC53D140EF5FFF4F9C
:10E8800019F0EE27FF27099420E030E040E050E047
:10E890008091C00087FFE0CF2091C600C35DDE4FAE
:10E8A00048815981CD52D1404F5F5F4FC35DDE4FEC
:10E8B00059834883CD52D140213209F063C64A3092
:10E8C000510508F05FC60894811C911C53E0851621
:10E8D000910409F059C600E010E018C081E280936D
:10E8E000C6008091C00086FFFCCF8091C00080648C
:10E8F0008093C0002F5F3F4F2931310579F70F9486
:10E90000DCF10F5F1F4F0530110519F020E030E0FA
:10E91000E5CF10920A0210920B0210920C02109294
:10E920000D02109206021092070210920802109235
:10E930000902109202021092030210920402109235
:10E9400005028FEE90EE60E00F94F5F180E191EE1C
:10E9500060E00F94C2F18091C00087FFFCCF9091DE
:10E96000C600903608F09F759032B8F09093C600BC
:10E970008091C00086FFFCCF8091C00080648093AE
:10E98000C000A0E2A093C6008091C00086FFFCCF2B
:10E990008091C00080648093C000983409F4D7C18E
:10E9A0009934B8F4923409F459C1933458F490333B
:10E9B00019F1903308F4E3C59F33A1F1903409F0C5
:10E9C000DEC5BDC0953409F470C1963409F0D7C5D1
:10E9D00098C1923509F42BC2933538F49C3409F46C
:10E9E000F5C1913509F0CBC518C2963509F445C279
:10E9F000993509F0C4C567C483E792EE62E00F94CD
:10EA0000F5F110920602109207021092080210927D
:10EA1000090210920A0210920B0210920C0210923C
:10EA20000D0213C18FE792EE62E00F94F5F18FEEC5
:10EA300090EE60E00F94F5F181E291EE60E00F94CA
:10EA4000C2F187EB91EE60E00F94F5F180E391EE77
:10EA500060E00F94C2F184EE90EE60E00F94F5F167
:10EA60008FE391EE60E00F94C2F186E090E061E008
:10EA700070E00F9434F20F94DCF18DE591EE60E0DC
:10EA80000F94C2F189EC91EE60E00F94F5F18EE401
:10EA900091EE60E00F94C2F183EC91EE60E00F9490
:10EAA000F5F18CE691EE60E00F94C2F18EE10F94E7
:10EAB0000DF288E90F940DF281E00F940DF20F949E
:10EAC000DCF18BE791EE60E00F94C2F119E0E0E039
:10EAD000F0E010935700E4918E2F0F940DF20F94F5
:10EAE000DCF18AE891EE60E00F94C2F1E3E0F0E03F
:10EAF00010935700E4918E2F0F940DF20F94DCF1D8
:10EB000089E991EE60E00F94C2F1E2E0F0E0109349
:10EB10005700E4918E2F0F940DF20F94DCF188EAE8
:10EB200091EE60E00F94C2F1E1E0F0E01093570045
:10EB30001491812F0F940DF20F94DCF107CF8BE825
:10EB400092EE62E00F94F5F18BE492EE60E00F94A8
:10EB5000F5F10F94DCF100E010E019C0C8016F2D51
:10EB60000F947FFEFF2031F489E492EE60E00F9471
:10EB7000C2F10BC0F092C6008091C00086FFFCCFAE
:10EB80008091C00080648093C0000F5F1F4FC80158
:10EB900081519F41A0E0B0E0ABBFFC01F790BAE229
:10EBA000FB1621F0E2E000301E07C1F60F94DCF105
:10EBB0000F94DCF187E592EE60E00F94F5F10F948D
:10EBC000DCF1CC24DD2400E010E01EC0C8010F946D
:10EBD00077FEF82E882331F489E492EE60E00F94FA
:10EBE000C2F10BC08093C6008091C00086FFFCCFAD
:10EBF0008091C00080648093C000FE1419F00894D6
:10EC0000C11CD11C0F5F1F4FC80181519F41A0E063
:10EC1000B0E0ABBFFC01E790FAE2EF1621F022E092
:10EC20000030120799F60F94DCF10F94DCF182E6C4
:10EC300092EE60E00F94C2F1C60161E070E00F94C3
:10EC400034F20F94DCF10F94DCF110920202109276
:10EC50000302109204021092050278CE89E992EE26
:10EC600062E00F94F5F1279A2F9A16C02F9880E052
:10EC700090E0E0EDF7E03197F1F7019684369105E9
:10EC8000C1F72F9A80E090E0E0EDF7E03197F1F7DF
:10EC9000019684369105C1F78091C00087FFE6CFC9
:10ECA0008091C00087FFFCCF64C485EA92EE62E0E9
:10ECB0000F94F5F140910202509103026091040219
:10ECC0007091050281E020E10F9491F2809102029F
:10ECD00090910302A0910402B091050280509F4FD1
:10ECE000AF4FBF4F8093020290930302A0930402A0
:10ECF000B093050280509041A040B04008F426CE69
:10ED0000A4CF83EB92EE62E00F94F5F140910602FE
:10ED100050910702609108027091090280E020E1A1
:10ED20000F9491F28091060290910702A09108023F
:10ED3000B091090280509F4FAF4FBF4F80930602A2
:10ED400090930702A0930802B0930902FFCD80ECD4
:10ED500092EE62E00F94F5F183E792EE60E00F949B
:10ED6000F5F18FE792EE60E00F94F5F18BE892EE0B
:10ED700060E00F94F5F189E992EE60E00F94F5F10F
:10ED800085EA92EE60E00F94F5F183EB92EE60E09D
:10ED90000F94F5F180EC92EE60E00F94F5F187ECC2
:10EDA00092EE60E00F94F5F188ED92EE60E00F9442
:10EDB000F5F18FED92EE60E00F94F5F18AEE92EEB0
:10EDC00060E00F94F5F183E093EEBDCD87EC92EE19
:10EDD00062E00F94F5F181E40F947BF282E40F94EA
:10EDE0007BF283E40F947BF284E40F947BF285E45E
:10EDF0000F947BF286E40F947BF287E40F947BF20E
:10EE000088E40F947BF28AE40F947BF28BE40F94F6
:10EE10007BF28CE40F947BF299CD88ED92EE62E068
:10EE20000F94F5F1772473948824992409C48FED05
:10EE300092EE62E00F94F5F140910A0250910B02BC
:10EE400060910C0270910D0282E020E10F9491F22A
:10EE500080910A0290910B02A0910C02B0910D02D8
:10EE600080509F4FAF4FBF4F80930A0290930B0289
:10EE7000A0930C02B0930D0269CD8AEE92EE62E08F
:10EE80000F94F5F184EE90EE60E00F94F5F18FECC5
:10EE900091EE60E00F94F5F1662477244301CC5D98
:10EEA000DE4F19821882C452D140D401C301B695F5
:10EEB000A79597958795CA5DDE4F88839983AA8326
:10EEC000BB83C652D140CC5DDE4FA881B981C4520C
:10EED000D1401196CC5DDE4FB983A883C452D14096
:10EEE000CD0162E070E00F9434F2B0E2B093C6005E
:10EEF0008091C00086FFFCCF8091C0008064809329
:10EF0000C000EDE2E093C6008091C00086FFFCCF18
:10EF10008091C00080648093C000F0E2F093C6004E
:10EF20008091C00086FFFCCF8091C00080648093F8
:10EF3000C000CA5DDE4FE880F9800A811B81C6529D
:10EF4000D140BB27A12F902F8F2D0F940DF2CA5DBA
:10EF5000DE4F8881C652D1400F940DF2B0E2FB2EF5
:10EF6000F092C6008091C00086FFFCCF8091C00067
:10EF700080648093C0000DE30093C6008091C000C0
:10EF800086FFFCCF8091C00080648093C00010E2B7
:10EF90001093C6008091C00086FFFCCF8091C00016
:10EFA00080648093C0008BBEF3012791C65DDE4F65
:10EFB0002883CA52D140A22EBB24CC24DD2408943D
:10EFC000611C711C811C911C8BBEF3018791282E42
:10EFD0003324442455240894611C711C811C911C09
:10EFE0008BBEF3013791C55DDE4F3883CB52D140E4
:10EFF0000894611C711C811C911C8BBEF30147910C
:10F00000C45DDE4F4883CC52D140ADEFEA2EAFEF66
:10F01000FA2EAFEF0A2FAFEF1A2F6E0C7F1C801E57
:10F02000911E142D032DF22CEE24EA0CFB1C0C1D5A
:10F030001D1D0F940DF220E22093C6008091C000A8
:10F0400086FFFCCF8091C00080648093C000C65DC5
:10F05000DE4F8881CA52D1400F940DF230E23093D6
:10F06000C6008091C00086FFFCCF8091C000806404
:10F070008093C000C45DDE4F8881CC52D1400F9494
:10F080000DF240E24093C6008091C00086FFFCCFA5
:10F090008091C00080648093C000C55DDE4F888190
:10F0A000CB52D1400F940DF250E25093C6008091A4
:10F0B000C00086FFFCCF8091C00080648093C000B8
:10F0C0008FEFE8168FEFF80680E0080780E018075A
:10F0D00031F484E092EE60E00F94C2F1DFC0D80119
:10F0E000C7018070907CA070B0708050904CA040A0
:10F0F000B040D1F52FEF3FE340E050E0E222F322B1
:10F1000004231523CA5DDE4FA880B980CA80DB8046
:10F11000C652D140AE0CBF1CC01ED11EAA0CBB1CD7
:10F12000CC1CDD1C8EE092EE60E00F94C2F1BB2798
:10F13000A12F902F8F2D0F940DF28E2D0F940DF285
:10F1400030E23093C6008091C00086FFFCCF8091F2
:10F15000C00080648093C0004EE34093C60080915D
:10F16000C00086FFFCCF87C08EE09EEFA0E0B0E03D
:10F17000E822F9220A231B239CE0E91694E9F90608
:10F1800090E0090790E0190709F088C0C45DDE4FE0
:10F19000A881CC52D140EA2EFF2400E010E0102FCD
:10F1A0000F2DFE2CEE24C55DDE4FB881CB52D14031
:10F1B000EB0EF11C011D111DD601C501817090706F
:10F1C000A070B070DC0199278827E80EF91E0A1F8D
:10F1D0001B1F20EF30E040E050E0A222B322C42207
:10F1E000D52241E1AA0CBB1CCC1CDD1C4A95D1F7F1
:10F1F000EA0CFB1C0C1D1D1D81E090E0A0E0B0E0BE
:10F20000282239224A225B2235E1220C331C441C7D
:10F21000551C3A95D1F7E20CF31C041D151D57013E
:10F220006801AA0CBB1CCC1CDD1C85E192EE60E0E1
:10F230000F94C2F1C801AA27BB270F940DF2BB2778
:10F24000A12F902F8F2D0F940DF28E2D0F940DF274
:10F2500090E29093C6008091C00086FFFCCF809121
:10F26000C00080648093C000AEE3A093C60080918C
:10F27000C00086FFFCCF8091C00080648093C000F6
:10F28000C601AA27BB270F940DF2BB27AD2D9C2DDD
:10F290008B2D0F940DF28A2D0F940DF20F94DCF14B
:10F2A000CC5DDE4FE881F981C452D140F99709F471
:10F2B0004DCBF4E0EF2EF12C012D112D6E0C7F1CA7
:10F2C000801E911EF2CD83E093EE62E00F94F5F183
:10F2D0008AE192EE60E00F94C2F18091C00087FF56
:10F2E000FCCF1091C6001F751093C6008091C0001E
:10F2F00086FFFCCF8091C00080648093C0000F9493
:10F30000DCF1812F81548A3108F036C1163409F4BA
:10F3100095C0173490F4133409F44EC0143430F40B
:10F320001134F1F0123409F01DC130C0143409F465
:10F3300059C0153409F016C16BC01A3409F4C4C0A1
:10F340001B3438F4173409F48FC0183409F00AC19B
:10F35000A1C01B3409F4D2C01C3409F003C1E8C0B9
:10F360008FEF81B90DC082B1809582B980E090E0C5
:10F37000E0EDF7E03197F1F70196883C9105C1F790
:10F380008091C00087FFEFCF12B8EFC08FEF84B934
:10F390000DC085B1809585B980E090E0E0EDF7E0A3
:10F3A0003197F1F70196883C9105C1F78091C00033
:10F3B00087FFEFCF15B8D9C08FEF87B90DC088B1DF
:10F3C000809588B980E090E0E0EDF7E03197F1F7C3
:10F3D0000196883C9105C1F78091C00087FFEFCF6F
:10F3E00018B8C3C08FEF8AB90DC08BB180958BB9A7
:10F3F00080E090E0E0EDF7E03197F1F70196883C8E
:10F400009105C1F78091C00087FFEFCF1BB8ADC059
:10F410008FEF8DB90DC08EB180958EB980E090E0F0
:10F42000E0EDF7E03197F1F70196883C9105C1F7DF
:10F430008091C00087FFEFCF1EB897C08FEF80BBD1
:10F440000DC081B3809581BB80E090E0E0EDF7E0F6
:10F450003197F1F70196883C9105C1F78091C00082
:10F4600087FFEFCF11BA81C08FEF83BB0DC084B38C
:10F47000809584BB80E090E0E0EDF7E03197F1F714
:10F480000196883C9105C1F78091C00087FFEFCFBE
:10F4900014BA6BC08FEF809301010FC080910201FD
:10F4A00080958093020180E090E0E0EDF7E03197F5
:10F4B000F1F70196883C9105C1F78091C00087FF64
:10F4C000EDCF1092020151C08FEF809304010FC065
:10F4D0008091050180958093050180E090E0E0ED4A
:10F4E000F7E03197F1F70196883C9105C1F78091DB
:10F4F000C00087FFEDCF1092050137C08FEF8093DA
:10F5000007010FC08091080180958093080180E079
:10F5100090E0E0EDF7E03197F1F70196883C910536
:10F52000C1F78091C00087FFEDCF109208011DC088
:10F530008FEF80930A010FC080910B01809580931B
:10F540000B0180E090E0E0EDF7E03197F1F70196F4
:10F55000883C9105C1F78091C00087FFEDCF1092E4
:10F560000B0103C085E292EEEEC98091C00087FFD7
:10F57000FCCF8091C600EAC988E392EEE4C98CE131
:10F5800091EEE1C988249924933011F1943028F444
:10F59000913089F09230B8F408C0953061F195301F
:10F5A000F0F0963009F048C043C02B3109F042C951
:10F5B00091E06BE13FC96227C15DDE4F2883CF52E6
:10F5C000D14092E037C9B22FA0E0622793E032C960
:10F5D000822F90E0A82BB92B622794E02BC92E3004
:10F5E00009F039C3622795E0C05DDE4F19821882A9
:10F5F000C053D1401FC9E1E0F0E0EC0FFD1FC05D3A
:10F60000DE4F08811981C053D140E00FF11F2083E4
:10F610000F5F1F4FC05DDE4F19830883C053D14079
:10F6200062270A171B0709F005C9D80196E002C92D
:10F63000261709F010C303C0973009F0FBC87724E0
:10F640009981933109F412C19431C8F4963009F4C8
:10F65000D8C0973050F4923009F406C1933009F4C1
:10F660006DC0913009F059C253C0913109F477C08F
:10F67000923108F0BBC0903109F04FC2F5C098310B
:10F6800009F487C0993150F4953109F4EFC09531F0
:10F6900008F4C6C1963109F040C2C2C19A3109F4DA
:10F6A0006CC09A3108F491C09B3109F45BC09D3164
:10F6B00009F033C29D81903359F48F81882311F46E
:10F6C0009EE11CC0813011F091E018C098E916C08D
:10F6D000892F807591F0903539F4E0E0F0E089E011
:10F6E0008093570094910AC0983539F4E3E0F0E034
:10F6F00089E080935700949101C090E01A821B82A8
:10F700008D818C831D829E831F8227E030E009C299
:10F710001A8288E08B8381E48C8386E58D8382E581
:10F720008E8389E48F8383E5888780E589878FE5E9
:10F730008A8782E38B872BE030E0F3C18A818139AD
:10F7400041F0823941F0803911F48FE005C080E04A
:10F7500003C082E001C08AE01A828B8344C0772410
:10F76000739482C08D81882311F48EE12CC0813086
:10F7700011F081E028C088E926C01A82E1E0F0E0BB
:10F7800089E08093570084918B831C8224E030E0D1
:10F79000C8C18B81803589F48C81883039F4E2E0EE
:10F7A000F0E089E08093570084910DC0E0E0F0E044
:10F7B00089E080935700849106C0E3E0F0E089E09F
:10F7C0008093570084911A82DFCF8D81836C99E0FA
:10F7D000E1E0F0E0082E90935700E89507B600FCB2
:10F7E000FDCF1A821B8223E030E09BC180EC8A832C
:10F7F000CE5CDE4F188219821A821B82C253D1401E
:10F800008EC18A8190E0A0E0B0E0582F44273327D2
:10F8100022278B8190E0A0E0B0E0DC0199278827C7
:10F82000282B392B4A2B5B2B8D8190E0A0E0B0E098
:10F83000282B392B4A2B5B2B8C8190E0A0E0B0E089
:10F84000BA2FA92F982F8827282B392B4A2B5B2BCF
:10F85000220F331F441F551FC05EDE4F288339839C
:10F860004A835B83C052D1401A8259C13A81C95C34
:10F87000DE4F3883C753D140CA5CDE4F1882C6536F
:10F88000D1408B81C82EDD24CA5CDE4F488159816E
:10F89000C653D140C42AD52A933109F082C0CE5C28
:10F8A000DE4F88819981AA81BB81C253D1408050AB
:10F8B000904CA340B04030F583E0CE5CDE4FE88052
:10F8C000F9800A811B81C253D140F70100935B008C
:10F8D00080935700E89507B600FCFDCFCE5CDE4F65
:10F8E000088119812A813B81C253D14000501F4FAA
:10F8F0002F4F3F4FCE5CDE4F088319832A833B8313
:10F90000C253D140C05EDE4F488159816A817B81FC
:10F91000C052D140DE011B9631E08C9111962C91A2
:10F9200011971296C75CDE4F2883C953D140C85C3B
:10F93000DE4F1882C853D14090E0C85CDE4FE881AA
:10F94000F981C853D1408E2B9F2B0C01FA01609393
:10F950005B0030935700E89511244E5F5F4F6F4F67
:10F960007F4F0EEFE02E0FEFF02ECE0CDF1CC114F8
:10F97000D10499F685E0C05EDE4F088119812A81A5
:10F980003B81C052D140F80120935B008093570027
:10F99000E89507B600FCFDCF81E180935700E8951C
:10F9A00035C0C05EDE4F88819981AA81BB81C0527B
:10F9B000D140B695A795979587957C018601ABE0D8
:10F9C000AA2EB12CAC0EBD1E0BC0D5016D915D01F0
:10F9D000C7010F947FFE0894E11CF11C01501040F8
:10F9E0000115110591F7A60160E070E0440F551F65
:10F9F000661F771FC05EDE4FE880F9800A811B8199
:10FA0000C052D1404E0D5F1D601F711F1A82C05E33
:10FA1000DE4F488359836A837B83C052D1407FC0C5
:10FA2000FA80C55CDE4FF882CB53D140C65CDE4F16
:10FA30001882CA53D1408B81C82EDD24C65CDE4FAC
:10FA400008811981CA53D140C02AD12A1A828981DA
:10FA5000BE016D5F7F4F843121F59601C05EDE4FA0
:10FA6000E880F9800A811B81C052D1400BBFF701A9
:10FA700087919691DB018C9311969C936E5F7F4FDB
:10FA8000D801C7010296A11DB11DC05EDE4F88835B
:10FA90009983AA83BB83C052D14022503040F1F6F3
:10FAA00036C0C05EDE4F288139814A815B81C052F9
:10FAB000D1400894C108D108760100E010E0089414
:10FAC000C11CD11C0894E11CF11C011D111DE20E8A
:10FAD000F31E041F151F21BDBB27A52F942F832FB5
:10FAE00082BD2F5F3F4F4F4F5F4FF89A80B5DB01CC
:10FAF0008D93BD012E153F054007510761F7C05E8C
:10FB0000DE4F288339834A835B83C052D1409601FC
:10FB10002D5F3F4FFB01108204C080EC8A8322E0FE
:10FB200030E08BE18093C6008091C00086FFFCCF5F
:10FB30008091C00080648093C000C15DDE4FF88179
:10FB4000CF52D140F093C6008091C00086FFFCCF19
:10FB50008091C00080648093C000432F3093C60022
:10FB60008091C00086FFFCCF8091C00080648093AC
:10FB7000C000922F2093C6008091C00086FFFCCF6A
:10FB80008091C00080648093C0008EE08093C600A6
:10FB90008091C00086FFFCCF8091C000806480937C
:10FBA000C00065E1C15DDE4FE880CF52D1406E25D7
:10FBB00069276427FE01319610C090819093C6009A
:10FBC0008091C00086FFFCCF31968091C000806498
:10FBD0008093C0006927215030402115310569F715
:10FBE0006093C6008091C00086FFFCCF8091C0006A
:10FBF00080648093C00085B1805885B9772081F4F6
:10FC0000C15DDE4F0881CF52D1400F5FC15DDE4F35
:10FC10000883CF52D14090E0A0E0B0E00D941AF4F8
:10FC200027982F9880E090E020ED37E0F901319798
:10FC3000F1F7019684369105C9F700008091C00064
:10FC40008D7F8093C00081E180935700E895EE2777
:10FC5000FF270994FFCF90E00D941AF497FB092E2B
:10FC600007260AD077FD04D02ED006D000201AF443
:10FC7000709561957F4F0895F6F7909581959F4F08
:10FC80000895A1E21A2EAA1BBB1BFD010DC0AA1FDD
:10FC9000BB1FEE1FFF1FA217B307E407F50720F0F5
:10FCA000A21BB30BE40BF50B661F771F881F991F70
:10FCB0001A9469F760957095809590959B01AC01B9
:10FCC000BD01CF010895AA1BBB1B51E107C0AA1FAC
:10FCD000BB1FA617B70710F0A61BB70B881F991FED
:10FCE0005A95A9F780959095BC01CD010895F99991
:10FCF000FECF92BD81BDF89A992780B50895262F31
:10FD0000F999FECF1FBA92BD81BD20BD0FB6F89400
:0EFD1000FA9AF99A0FBE01960895F894FFCF63
:00000001FF
